{
	"variables_nativas.sol": {
		"Variables_Nativas": {
			"abi": [
				{
					"inputs": [
						{
							"internalType": "string",
							"name": "_lastName",
							"type": "string"
						}
					],
					"stateMutability": "nonpayable",
					"type": "constructor"
				},
				{
					"inputs": [],
					"name": "address_var",
					"outputs": [
						{
							"internalType": "address",
							"name": "",
							"type": "address"
						}
					],
					"stateMutability": "view",
					"type": "function"
				},
				{
					"inputs": [],
					"name": "getBytes",
					"outputs": [
						{
							"internalType": "bytes1",
							"name": "",
							"type": "bytes1"
						}
					],
					"stateMutability": "view",
					"type": "function"
				},
				{
					"inputs": [],
					"name": "getName",
					"outputs": [
						{
							"internalType": "string",
							"name": "",
							"type": "string"
						}
					],
					"stateMutability": "view",
					"type": "function"
				},
				{
					"inputs": [],
					"name": "int_256",
					"outputs": [
						{
							"internalType": "int256",
							"name": "",
							"type": "int256"
						}
					],
					"stateMutability": "view",
					"type": "function"
				},
				{
					"inputs": [],
					"name": "int_8",
					"outputs": [
						{
							"internalType": "int8",
							"name": "",
							"type": "int8"
						}
					],
					"stateMutability": "view",
					"type": "function"
				},
				{
					"inputs": [],
					"name": "uint_256",
					"outputs": [
						{
							"internalType": "uint256",
							"name": "",
							"type": "uint256"
						}
					],
					"stateMutability": "view",
					"type": "function"
				},
				{
					"inputs": [],
					"name": "uint_8",
					"outputs": [
						{
							"internalType": "uint8",
							"name": "",
							"type": "uint8"
						}
					],
					"stateMutability": "view",
					"type": "function"
				}
			],
			"devdoc": {
				"kind": "dev",
				"methods": {},
				"version": 1
			},
			"evm": {
				"assembly": "    /* \"variables_nativas.sol\":96:1284  contract Variables_Nativas {... */\n  mstore(0x40, 0x80)\n    /* \"variables_nativas.sol\":697:698  1 */\n  0x01\n    /* \"variables_nativas.sol\":675:698  uint8 public uint_8 = 1 */\n  dup1\n  exp(0x0100, 0x00)\n  dup2\n  sload\n  dup2\n  0xff\n  mul\n  not\n  and\n  swap1\n  dup4\n  0xff\n  and\n  mul\n  or\n  swap1\n  sstore\n  pop\n    /* \"variables_nativas.sol\":731:734  234 */\n  0xea\n    /* \"variables_nativas.sol\":705:734  uint256 public uint_256 = 234 */\n  0x02\n  sstore\n    /* \"variables_nativas.sol\":839:841  -1 */\n  0xffffffffffffffffffffffffffffffffffffffffffffffffffffffffffffffff\n    /* \"variables_nativas.sol\":819:841  int8 public int_8 = -1 */\n  0x03\n  exp(0x0100, 0x00)\n  dup2\n  sload\n  dup2\n  0xff\n  mul\n  not\n  and\n  swap1\n  dup4\n  0x00\n  signextend\n  0xff\n  and\n  mul\n  or\n  swap1\n  sstore\n  pop\n    /* \"variables_nativas.sol\":872:875  456 */\n  0x01c8\n    /* \"variables_nativas.sol\":848:875  int256 public int_256 = 456 */\n  0x04\n  sstore\n    /* \"variables_nativas.sol\":1004:1046  0x1d870f1210e66cba98093682b84d4491Ec04141b */\n  0x1d870f1210e66cba98093682b84d4491ec04141b\n    /* \"variables_nativas.sol\":974:1046  address public  address_var = 0x1d870f1210e66cba98093682b84d4491Ec04141b */\n  0x05\n  exp(0x0100, 0x00)\n  dup2\n  sload\n  dup2\n  0xffffffffffffffffffffffffffffffffffffffff\n  mul\n  not\n  and\n  swap1\n  dup4\n  0xffffffffffffffffffffffffffffffffffffffff\n  and\n  mul\n  or\n  swap1\n  sstore\n  pop\n    /* \"variables_nativas.sol\":1114:1118  0xb5 */\n  0xb5\n    /* \"variables_nativas.sol\":1099:1118  bytes1 a_var = 0xb5 */\n  0xf8\n  shl\n  0x05\n  exp(0x0100, 0x14)\n  dup2\n  sload\n  dup2\n  0xff\n  mul\n  not\n  and\n  swap1\n  dup4\n  0xf8\n  shr\n  mul\n  or\n  swap1\n  sstore\n  pop\n    /* \"variables_nativas.sol\":1154:1158  0x56 */\n  0x56\n    /* \"variables_nativas.sol\":1139:1158  bytes1 b_var = 0x56 */\n  0xf8\n  shl\n  0x05\n  exp(0x0100, 0x15)\n  dup2\n  sload\n  dup2\n  0xff\n  mul\n  not\n  and\n  swap1\n  dup4\n  0xf8\n  shr\n  mul\n  or\n  swap1\n  sstore\n  pop\n    /* \"variables_nativas.sol\":230:373  constructor(string memory _lastName) {... */\n  callvalue\n  dup1\n  iszero\n  tag_1\n  jumpi\n  0x00\n  dup1\n  revert\ntag_1:\n  pop\n  mload(0x40)\n  sub(codesize, bytecodeSize)\n  dup1\n  bytecodeSize\n  dup4\n  codecopy\n  dup2\n  dup2\n  add\n  0x40\n  mstore\n  dup2\n  add\n  swap1\n  tag_2\n  swap2\n  swap1\n  tag_3\n  jump\t// in\ntag_2:\n    /* \"variables_nativas.sol\":325:334  _lastName */\n  dup1\n    /* \"variables_nativas.sol\":289:335  string.concat(\"Mi nombre es:\", \" \", _lastName) */\n  add(0x20, mload(0x40))\n  tag_6\n  swap2\n  swap1\n  tag_7\n  jump\t// in\ntag_6:\n  mload(0x40)\n  0x20\n  dup2\n  dup4\n  sub\n  sub\n  dup2\n  mstore\n  swap1\n  0x40\n  mstore\n    /* \"variables_nativas.sol\":278:286  fullName */\n  0x00\n    /* \"variables_nativas.sol\":278:335  fullName = string.concat(\"Mi nombre es:\", \" \", _lastName) */\n  swap1\n  dup2\n  tag_8\n  swap2\n  swap1\n  tag_9\n  jump\t// in\ntag_8:\n  pop\n    /* \"variables_nativas.sol\":230:373  constructor(string memory _lastName) {... */\n  pop\n    /* \"variables_nativas.sol\":96:1284  contract Variables_Nativas {... */\n  jump(tag_10)\n    /* \"#utility.yul\":7:82   */\ntag_11:\n    /* \"#utility.yul\":40:46   */\n  0x00\n    /* \"#utility.yul\":73:75   */\n  0x40\n    /* \"#utility.yul\":67:76   */\n  mload\n    /* \"#utility.yul\":57:76   */\n  swap1\n  pop\n    /* \"#utility.yul\":7:82   */\n  swap1\n  jump\t// out\n    /* \"#utility.yul\":88:205   */\ntag_12:\n    /* \"#utility.yul\":197:198   */\n  0x00\n    /* \"#utility.yul\":194:195   */\n  dup1\n    /* \"#utility.yul\":187:199   */\n  revert\n    /* \"#utility.yul\":211:328   */\ntag_13:\n    /* \"#utility.yul\":320:321   */\n  0x00\n    /* \"#utility.yul\":317:318   */\n  dup1\n    /* \"#utility.yul\":310:322   */\n  revert\n    /* \"#utility.yul\":334:451   */\ntag_14:\n    /* \"#utility.yul\":443:444   */\n  0x00\n    /* \"#utility.yul\":440:441   */\n  dup1\n    /* \"#utility.yul\":433:445   */\n  revert\n    /* \"#utility.yul\":457:574   */\ntag_15:\n    /* \"#utility.yul\":566:567   */\n  0x00\n    /* \"#utility.yul\":563:564   */\n  dup1\n    /* \"#utility.yul\":556:568   */\n  revert\n    /* \"#utility.yul\":580:682   */\ntag_16:\n    /* \"#utility.yul\":621:627   */\n  0x00\n    /* \"#utility.yul\":672:674   */\n  0x1f\n    /* \"#utility.yul\":668:675   */\n  not\n    /* \"#utility.yul\":663:665   */\n  0x1f\n    /* \"#utility.yul\":656:661   */\n  dup4\n    /* \"#utility.yul\":652:666   */\n  add\n    /* \"#utility.yul\":648:676   */\n  and\n    /* \"#utility.yul\":638:676   */\n  swap1\n  pop\n    /* \"#utility.yul\":580:682   */\n  swap2\n  swap1\n  pop\n  jump\t// out\n    /* \"#utility.yul\":688:868   */\ntag_17:\n    /* \"#utility.yul\":736:813   */\n  0x4e487b7100000000000000000000000000000000000000000000000000000000\n    /* \"#utility.yul\":733:734   */\n  0x00\n    /* \"#utility.yul\":726:814   */\n  mstore\n    /* \"#utility.yul\":833:837   */\n  0x41\n    /* \"#utility.yul\":830:831   */\n  0x04\n    /* \"#utility.yul\":823:838   */\n  mstore\n    /* \"#utility.yul\":857:861   */\n  0x24\n    /* \"#utility.yul\":854:855   */\n  0x00\n    /* \"#utility.yul\":847:862   */\n  revert\n    /* \"#utility.yul\":874:1155   */\ntag_18:\n    /* \"#utility.yul\":957:984   */\n  tag_56\n    /* \"#utility.yul\":979:983   */\n  dup3\n    /* \"#utility.yul\":957:984   */\n  tag_16\n  jump\t// in\ntag_56:\n    /* \"#utility.yul\":949:955   */\n  dup2\n    /* \"#utility.yul\":945:985   */\n  add\n    /* \"#utility.yul\":1087:1093   */\n  dup2\n    /* \"#utility.yul\":1075:1085   */\n  dup2\n    /* \"#utility.yul\":1072:1094   */\n  lt\n    /* \"#utility.yul\":1051:1069   */\n  0xffffffffffffffff\n    /* \"#utility.yul\":1039:1049   */\n  dup3\n    /* \"#utility.yul\":1036:1070   */\n  gt\n    /* \"#utility.yul\":1033:1095   */\n  or\n    /* \"#utility.yul\":1030:1118   */\n  iszero\n  tag_57\n  jumpi\n    /* \"#utility.yul\":1098:1116   */\n  tag_58\n  tag_17\n  jump\t// in\ntag_58:\n    /* \"#utility.yul\":1030:1118   */\ntag_57:\n    /* \"#utility.yul\":1138:1148   */\n  dup1\n    /* \"#utility.yul\":1134:1136   */\n  0x40\n    /* \"#utility.yul\":1127:1149   */\n  mstore\n    /* \"#utility.yul\":917:1155   */\n  pop\n    /* \"#utility.yul\":874:1155   */\n  pop\n  pop\n  jump\t// out\n    /* \"#utility.yul\":1161:1290   */\ntag_19:\n    /* \"#utility.yul\":1195:1201   */\n  0x00\n    /* \"#utility.yul\":1222:1242   */\n  tag_60\n  tag_11\n  jump\t// in\ntag_60:\n    /* \"#utility.yul\":1212:1242   */\n  swap1\n  pop\n    /* \"#utility.yul\":1251:1284   */\n  tag_61\n    /* \"#utility.yul\":1279:1283   */\n  dup3\n    /* \"#utility.yul\":1271:1277   */\n  dup3\n    /* \"#utility.yul\":1251:1284   */\n  tag_18\n  jump\t// in\ntag_61:\n    /* \"#utility.yul\":1161:1290   */\n  swap2\n  swap1\n  pop\n  jump\t// out\n    /* \"#utility.yul\":1296:1604   */\ntag_20:\n    /* \"#utility.yul\":1358:1362   */\n  0x00\n    /* \"#utility.yul\":1448:1466   */\n  0xffffffffffffffff\n    /* \"#utility.yul\":1440:1446   */\n  dup3\n    /* \"#utility.yul\":1437:1467   */\n  gt\n    /* \"#utility.yul\":1434:1490   */\n  iszero\n  tag_63\n  jumpi\n    /* \"#utility.yul\":1470:1488   */\n  tag_64\n  tag_17\n  jump\t// in\ntag_64:\n    /* \"#utility.yul\":1434:1490   */\ntag_63:\n    /* \"#utility.yul\":1508:1537   */\n  tag_65\n    /* \"#utility.yul\":1530:1536   */\n  dup3\n    /* \"#utility.yul\":1508:1537   */\n  tag_16\n  jump\t// in\ntag_65:\n    /* \"#utility.yul\":1500:1537   */\n  swap1\n  pop\n    /* \"#utility.yul\":1592:1596   */\n  0x20\n    /* \"#utility.yul\":1586:1590   */\n  dup2\n    /* \"#utility.yul\":1582:1597   */\n  add\n    /* \"#utility.yul\":1574:1597   */\n  swap1\n  pop\n    /* \"#utility.yul\":1296:1604   */\n  swap2\n  swap1\n  pop\n  jump\t// out\n    /* \"#utility.yul\":1610:1749   */\ntag_21:\n    /* \"#utility.yul\":1699:1705   */\n  dup3\n    /* \"#utility.yul\":1694:1697   */\n  dup2\n    /* \"#utility.yul\":1689:1692   */\n  dup4\n    /* \"#utility.yul\":1683:1706   */\n  mcopy\n    /* \"#utility.yul\":1740:1741   */\n  0x00\n    /* \"#utility.yul\":1731:1737   */\n  dup4\n    /* \"#utility.yul\":1726:1729   */\n  dup4\n    /* \"#utility.yul\":1722:1738   */\n  add\n    /* \"#utility.yul\":1715:1742   */\n  mstore\n    /* \"#utility.yul\":1610:1749   */\n  pop\n  pop\n  pop\n  jump\t// out\n    /* \"#utility.yul\":1755:2189   */\ntag_22:\n    /* \"#utility.yul\":1844:1849   */\n  0x00\n    /* \"#utility.yul\":1869:1935   */\n  tag_68\n    /* \"#utility.yul\":1885:1934   */\n  tag_69\n    /* \"#utility.yul\":1927:1933   */\n  dup5\n    /* \"#utility.yul\":1885:1934   */\n  tag_20\n  jump\t// in\ntag_69:\n    /* \"#utility.yul\":1869:1935   */\n  tag_19\n  jump\t// in\ntag_68:\n    /* \"#utility.yul\":1860:1935   */\n  swap1\n  pop\n    /* \"#utility.yul\":1958:1964   */\n  dup3\n    /* \"#utility.yul\":1951:1956   */\n  dup2\n    /* \"#utility.yul\":1944:1965   */\n  mstore\n    /* \"#utility.yul\":1996:2000   */\n  0x20\n    /* \"#utility.yul\":1989:1994   */\n  dup2\n    /* \"#utility.yul\":1985:2001   */\n  add\n    /* \"#utility.yul\":2034:2037   */\n  dup5\n    /* \"#utility.yul\":2025:2031   */\n  dup5\n    /* \"#utility.yul\":2020:2023   */\n  dup5\n    /* \"#utility.yul\":2016:2032   */\n  add\n    /* \"#utility.yul\":2013:2038   */\n  gt\n    /* \"#utility.yul\":2010:2122   */\n  iszero\n  tag_70\n  jumpi\n    /* \"#utility.yul\":2041:2120   */\n  tag_71\n  tag_15\n  jump\t// in\ntag_71:\n    /* \"#utility.yul\":2010:2122   */\ntag_70:\n    /* \"#utility.yul\":2131:2183   */\n  tag_72\n    /* \"#utility.yul\":2176:2182   */\n  dup5\n    /* \"#utility.yul\":2171:2174   */\n  dup3\n    /* \"#utility.yul\":2166:2169   */\n  dup6\n    /* \"#utility.yul\":2131:2183   */\n  tag_21\n  jump\t// in\ntag_72:\n    /* \"#utility.yul\":1850:2189   */\n  pop\n    /* \"#utility.yul\":1755:2189   */\n  swap4\n  swap3\n  pop\n  pop\n  pop\n  jump\t// out\n    /* \"#utility.yul\":2209:2564   */\ntag_23:\n    /* \"#utility.yul\":2276:2281   */\n  0x00\n    /* \"#utility.yul\":2325:2328   */\n  dup3\n    /* \"#utility.yul\":2318:2322   */\n  0x1f\n    /* \"#utility.yul\":2310:2316   */\n  dup4\n    /* \"#utility.yul\":2306:2323   */\n  add\n    /* \"#utility.yul\":2302:2329   */\n  slt\n    /* \"#utility.yul\":2292:2414   */\n  tag_74\n  jumpi\n    /* \"#utility.yul\":2333:2412   */\n  tag_75\n  tag_14\n  jump\t// in\ntag_75:\n    /* \"#utility.yul\":2292:2414   */\ntag_74:\n    /* \"#utility.yul\":2443:2449   */\n  dup2\n    /* \"#utility.yul\":2437:2450   */\n  mload\n    /* \"#utility.yul\":2468:2558   */\n  tag_76\n    /* \"#utility.yul\":2554:2557   */\n  dup5\n    /* \"#utility.yul\":2546:2552   */\n  dup3\n    /* \"#utility.yul\":2539:2543   */\n  0x20\n    /* \"#utility.yul\":2531:2537   */\n  dup7\n    /* \"#utility.yul\":2527:2544   */\n  add\n    /* \"#utility.yul\":2468:2558   */\n  tag_22\n  jump\t// in\ntag_76:\n    /* \"#utility.yul\":2459:2558   */\n  swap2\n  pop\n    /* \"#utility.yul\":2282:2564   */\n  pop\n    /* \"#utility.yul\":2209:2564   */\n  swap3\n  swap2\n  pop\n  pop\n  jump\t// out\n    /* \"#utility.yul\":2570:3094   */\ntag_3:\n    /* \"#utility.yul\":2650:2656   */\n  0x00\n    /* \"#utility.yul\":2699:2701   */\n  0x20\n    /* \"#utility.yul\":2687:2696   */\n  dup3\n    /* \"#utility.yul\":2678:2685   */\n  dup5\n    /* \"#utility.yul\":2674:2697   */\n  sub\n    /* \"#utility.yul\":2670:2702   */\n  slt\n    /* \"#utility.yul\":2667:2786   */\n  iszero\n  tag_78\n  jumpi\n    /* \"#utility.yul\":2705:2784   */\n  tag_79\n  tag_12\n  jump\t// in\ntag_79:\n    /* \"#utility.yul\":2667:2786   */\ntag_78:\n    /* \"#utility.yul\":2846:2847   */\n  0x00\n    /* \"#utility.yul\":2835:2844   */\n  dup3\n    /* \"#utility.yul\":2831:2848   */\n  add\n    /* \"#utility.yul\":2825:2849   */\n  mload\n    /* \"#utility.yul\":2876:2894   */\n  0xffffffffffffffff\n    /* \"#utility.yul\":2868:2874   */\n  dup2\n    /* \"#utility.yul\":2865:2895   */\n  gt\n    /* \"#utility.yul\":2862:2979   */\n  iszero\n  tag_80\n  jumpi\n    /* \"#utility.yul\":2898:2977   */\n  tag_81\n  tag_13\n  jump\t// in\ntag_81:\n    /* \"#utility.yul\":2862:2979   */\ntag_80:\n    /* \"#utility.yul\":3003:3077   */\n  tag_82\n    /* \"#utility.yul\":3069:3076   */\n  dup5\n    /* \"#utility.yul\":3060:3066   */\n  dup3\n    /* \"#utility.yul\":3049:3058   */\n  dup6\n    /* \"#utility.yul\":3045:3067   */\n  add\n    /* \"#utility.yul\":3003:3077   */\n  tag_23\n  jump\t// in\ntag_82:\n    /* \"#utility.yul\":2993:3077   */\n  swap2\n  pop\n    /* \"#utility.yul\":2796:3087   */\n  pop\n    /* \"#utility.yul\":2570:3094   */\n  swap3\n  swap2\n  pop\n  pop\n  jump\t// out\n    /* \"#utility.yul\":3100:3291   */\ntag_24:\n    /* \"#utility.yul\":3269:3284   */\n  0x4d69206e6f6d6272652065733a00000000000000000000000000000000000000\n    /* \"#utility.yul\":3264:3267   */\n  dup2\n    /* \"#utility.yul\":3257:3285   */\n  mstore\n    /* \"#utility.yul\":3100:3291   */\n  pop\n  jump\t// out\n    /* \"#utility.yul\":3297:3475   */\ntag_25:\n    /* \"#utility.yul\":3465:3468   */\n  0x2000000000000000000000000000000000000000000000000000000000000000\n    /* \"#utility.yul\":3460:3463   */\n  dup2\n    /* \"#utility.yul\":3453:3469   */\n  mstore\n    /* \"#utility.yul\":3297:3475   */\n  pop\n  jump\t// out\n    /* \"#utility.yul\":3481:3580   */\ntag_26:\n    /* \"#utility.yul\":3533:3539   */\n  0x00\n    /* \"#utility.yul\":3567:3572   */\n  dup2\n    /* \"#utility.yul\":3561:3573   */\n  mload\n    /* \"#utility.yul\":3551:3573   */\n  swap1\n  pop\n    /* \"#utility.yul\":3481:3580   */\n  swap2\n  swap1\n  pop\n  jump\t// out\n    /* \"#utility.yul\":3586:3734   */\ntag_27:\n    /* \"#utility.yul\":3688:3699   */\n  0x00\n    /* \"#utility.yul\":3725:3728   */\n  dup2\n    /* \"#utility.yul\":3710:3728   */\n  swap1\n  pop\n    /* \"#utility.yul\":3586:3734   */\n  swap3\n  swap2\n  pop\n  pop\n  jump\t// out\n    /* \"#utility.yul\":3740:4130   */\ntag_28:\n    /* \"#utility.yul\":3846:3849   */\n  0x00\n    /* \"#utility.yul\":3874:3913   */\n  tag_88\n    /* \"#utility.yul\":3907:3912   */\n  dup3\n    /* \"#utility.yul\":3874:3913   */\n  tag_26\n  jump\t// in\ntag_88:\n    /* \"#utility.yul\":3929:4018   */\n  tag_89\n    /* \"#utility.yul\":4011:4017   */\n  dup2\n    /* \"#utility.yul\":4006:4009   */\n  dup6\n    /* \"#utility.yul\":3929:4018   */\n  tag_27\n  jump\t// in\ntag_89:\n    /* \"#utility.yul\":3922:4018   */\n  swap4\n  pop\n    /* \"#utility.yul\":4027:4092   */\n  tag_90\n    /* \"#utility.yul\":4085:4091   */\n  dup2\n    /* \"#utility.yul\":4080:4083   */\n  dup6\n    /* \"#utility.yul\":4073:4077   */\n  0x20\n    /* \"#utility.yul\":4066:4071   */\n  dup7\n    /* \"#utility.yul\":4062:4078   */\n  add\n    /* \"#utility.yul\":4027:4092   */\n  tag_21\n  jump\t// in\ntag_90:\n    /* \"#utility.yul\":4117:4123   */\n  dup1\n    /* \"#utility.yul\":4112:4115   */\n  dup5\n    /* \"#utility.yul\":4108:4124   */\n  add\n    /* \"#utility.yul\":4101:4124   */\n  swap2\n  pop\n    /* \"#utility.yul\":3850:4130   */\n  pop\n    /* \"#utility.yul\":3740:4130   */\n  swap3\n  swap2\n  pop\n  pop\n  jump\t// out\n    /* \"#utility.yul\":4136:4942   */\ntag_7:\n    /* \"#utility.yul\":4449:4452   */\n  0x00\n    /* \"#utility.yul\":4464:4602   */\n  tag_92\n    /* \"#utility.yul\":4598:4601   */\n  dup3\n    /* \"#utility.yul\":4464:4602   */\n  tag_24\n  jump\t// in\ntag_92:\n    /* \"#utility.yul\":4627:4629   */\n  0x0d\n    /* \"#utility.yul\":4622:4625   */\n  dup3\n    /* \"#utility.yul\":4618:4630   */\n  add\n    /* \"#utility.yul\":4611:4630   */\n  swap2\n  pop\n    /* \"#utility.yul\":4640:4777   */\n  tag_93\n    /* \"#utility.yul\":4773:4776   */\n  dup3\n    /* \"#utility.yul\":4640:4777   */\n  tag_25\n  jump\t// in\ntag_93:\n    /* \"#utility.yul\":4802:4803   */\n  0x01\n    /* \"#utility.yul\":4797:4800   */\n  dup3\n    /* \"#utility.yul\":4793:4804   */\n  add\n    /* \"#utility.yul\":4786:4804   */\n  swap2\n  pop\n    /* \"#utility.yul\":4821:4916   */\n  tag_94\n    /* \"#utility.yul\":4912:4915   */\n  dup3\n    /* \"#utility.yul\":4903:4909   */\n  dup5\n    /* \"#utility.yul\":4821:4916   */\n  tag_28\n  jump\t// in\ntag_94:\n    /* \"#utility.yul\":4814:4916   */\n  swap2\n  pop\n    /* \"#utility.yul\":4933:4936   */\n  dup2\n    /* \"#utility.yul\":4926:4936   */\n  swap1\n  pop\n    /* \"#utility.yul\":4136:4942   */\n  swap3\n  swap2\n  pop\n  pop\n  jump\t// out\n    /* \"#utility.yul\":4948:5128   */\ntag_29:\n    /* \"#utility.yul\":4996:5073   */\n  0x4e487b7100000000000000000000000000000000000000000000000000000000\n    /* \"#utility.yul\":4993:4994   */\n  0x00\n    /* \"#utility.yul\":4986:5074   */\n  mstore\n    /* \"#utility.yul\":5093:5097   */\n  0x22\n    /* \"#utility.yul\":5090:5091   */\n  0x04\n    /* \"#utility.yul\":5083:5098   */\n  mstore\n    /* \"#utility.yul\":5117:5121   */\n  0x24\n    /* \"#utility.yul\":5114:5115   */\n  0x00\n    /* \"#utility.yul\":5107:5122   */\n  revert\n    /* \"#utility.yul\":5134:5454   */\ntag_30:\n    /* \"#utility.yul\":5178:5184   */\n  0x00\n    /* \"#utility.yul\":5215:5216   */\n  0x02\n    /* \"#utility.yul\":5209:5213   */\n  dup3\n    /* \"#utility.yul\":5205:5217   */\n  div\n    /* \"#utility.yul\":5195:5217   */\n  swap1\n  pop\n    /* \"#utility.yul\":5262:5263   */\n  0x01\n    /* \"#utility.yul\":5256:5260   */\n  dup3\n    /* \"#utility.yul\":5252:5264   */\n  and\n    /* \"#utility.yul\":5283:5301   */\n  dup1\n    /* \"#utility.yul\":5273:5354   */\n  tag_97\n  jumpi\n    /* \"#utility.yul\":5339:5343   */\n  0x7f\n    /* \"#utility.yul\":5331:5337   */\n  dup3\n    /* \"#utility.yul\":5327:5344   */\n  and\n    /* \"#utility.yul\":5317:5344   */\n  swap2\n  pop\n    /* \"#utility.yul\":5273:5354   */\ntag_97:\n    /* \"#utility.yul\":5401:5403   */\n  0x20\n    /* \"#utility.yul\":5393:5399   */\n  dup3\n    /* \"#utility.yul\":5390:5404   */\n  lt\n    /* \"#utility.yul\":5370:5388   */\n  dup2\n    /* \"#utility.yul\":5367:5405   */\n  sub\n    /* \"#utility.yul\":5364:5448   */\n  tag_98\n  jumpi\n    /* \"#utility.yul\":5420:5438   */\n  tag_99\n  tag_29\n  jump\t// in\ntag_99:\n    /* \"#utility.yul\":5364:5448   */\ntag_98:\n    /* \"#utility.yul\":5185:5454   */\n  pop\n    /* \"#utility.yul\":5134:5454   */\n  swap2\n  swap1\n  pop\n  jump\t// out\n    /* \"#utility.yul\":5460:5601   */\ntag_31:\n    /* \"#utility.yul\":5509:5513   */\n  0x00\n    /* \"#utility.yul\":5532:5535   */\n  dup2\n    /* \"#utility.yul\":5524:5535   */\n  swap1\n  pop\n    /* \"#utility.yul\":5555:5558   */\n  dup2\n    /* \"#utility.yul\":5552:5553   */\n  0x00\n    /* \"#utility.yul\":5545:5559   */\n  mstore\n    /* \"#utility.yul\":5589:5593   */\n  0x20\n    /* \"#utility.yul\":5586:5587   */\n  0x00\n    /* \"#utility.yul\":5576:5594   */\n  keccak256\n    /* \"#utility.yul\":5568:5594   */\n  swap1\n  pop\n    /* \"#utility.yul\":5460:5601   */\n  swap2\n  swap1\n  pop\n  jump\t// out\n    /* \"#utility.yul\":5607:5700   */\ntag_32:\n    /* \"#utility.yul\":5644:5650   */\n  0x00\n    /* \"#utility.yul\":5691:5693   */\n  0x20\n    /* \"#utility.yul\":5686:5688   */\n  0x1f\n    /* \"#utility.yul\":5679:5684   */\n  dup4\n    /* \"#utility.yul\":5675:5689   */\n  add\n    /* \"#utility.yul\":5671:5694   */\n  div\n    /* \"#utility.yul\":5661:5694   */\n  swap1\n  pop\n    /* \"#utility.yul\":5607:5700   */\n  swap2\n  swap1\n  pop\n  jump\t// out\n    /* \"#utility.yul\":5706:5813   */\ntag_33:\n    /* \"#utility.yul\":5750:5758   */\n  0x00\n    /* \"#utility.yul\":5800:5805   */\n  dup3\n    /* \"#utility.yul\":5794:5798   */\n  dup3\n    /* \"#utility.yul\":5790:5806   */\n  shl\n    /* \"#utility.yul\":5769:5806   */\n  swap1\n  pop\n    /* \"#utility.yul\":5706:5813   */\n  swap3\n  swap2\n  pop\n  pop\n  jump\t// out\n    /* \"#utility.yul\":5819:6212   */\ntag_34:\n    /* \"#utility.yul\":5888:5894   */\n  0x00\n    /* \"#utility.yul\":5938:5939   */\n  0x08\n    /* \"#utility.yul\":5926:5936   */\n  dup4\n    /* \"#utility.yul\":5922:5940   */\n  mul\n    /* \"#utility.yul\":5961:6058   */\n  tag_104\n    /* \"#utility.yul\":5991:6057   */\n  0xffffffffffffffffffffffffffffffffffffffffffffffffffffffffffffffff\n    /* \"#utility.yul\":5980:5989   */\n  dup3\n    /* \"#utility.yul\":5961:6058   */\n  tag_33\n  jump\t// in\ntag_104:\n    /* \"#utility.yul\":6079:6118   */\n  tag_105\n    /* \"#utility.yul\":6109:6117   */\n  dup7\n    /* \"#utility.yul\":6098:6107   */\n  dup4\n    /* \"#utility.yul\":6079:6118   */\n  tag_33\n  jump\t// in\ntag_105:\n    /* \"#utility.yul\":6067:6118   */\n  swap6\n  pop\n    /* \"#utility.yul\":6151:6155   */\n  dup1\n    /* \"#utility.yul\":6147:6156   */\n  not\n    /* \"#utility.yul\":6140:6145   */\n  dup5\n    /* \"#utility.yul\":6136:6157   */\n  and\n    /* \"#utility.yul\":6127:6157   */\n  swap4\n  pop\n    /* \"#utility.yul\":6200:6204   */\n  dup1\n    /* \"#utility.yul\":6190:6198   */\n  dup7\n    /* \"#utility.yul\":6186:6205   */\n  and\n    /* \"#utility.yul\":6179:6184   */\n  dup5\n    /* \"#utility.yul\":6176:6206   */\n  or\n    /* \"#utility.yul\":6166:6206   */\n  swap3\n  pop\n    /* \"#utility.yul\":5895:6212   */\n  pop\n  pop\n    /* \"#utility.yul\":5819:6212   */\n  swap4\n  swap3\n  pop\n  pop\n  pop\n  jump\t// out\n    /* \"#utility.yul\":6218:6295   */\ntag_35:\n    /* \"#utility.yul\":6255:6262   */\n  0x00\n    /* \"#utility.yul\":6284:6289   */\n  dup2\n    /* \"#utility.yul\":6273:6289   */\n  swap1\n  pop\n    /* \"#utility.yul\":6218:6295   */\n  swap2\n  swap1\n  pop\n  jump\t// out\n    /* \"#utility.yul\":6301:6361   */\ntag_36:\n    /* \"#utility.yul\":6329:6332   */\n  0x00\n    /* \"#utility.yul\":6350:6355   */\n  dup2\n    /* \"#utility.yul\":6343:6355   */\n  swap1\n  pop\n    /* \"#utility.yul\":6301:6361   */\n  swap2\n  swap1\n  pop\n  jump\t// out\n    /* \"#utility.yul\":6367:6509   */\ntag_37:\n    /* \"#utility.yul\":6417:6426   */\n  0x00\n    /* \"#utility.yul\":6450:6503   */\n  tag_109\n    /* \"#utility.yul\":6468:6502   */\n  tag_110\n    /* \"#utility.yul\":6477:6501   */\n  tag_111\n    /* \"#utility.yul\":6495:6500   */\n  dup5\n    /* \"#utility.yul\":6477:6501   */\n  tag_35\n  jump\t// in\ntag_111:\n    /* \"#utility.yul\":6468:6502   */\n  tag_36\n  jump\t// in\ntag_110:\n    /* \"#utility.yul\":6450:6503   */\n  tag_35\n  jump\t// in\ntag_109:\n    /* \"#utility.yul\":6437:6503   */\n  swap1\n  pop\n    /* \"#utility.yul\":6367:6509   */\n  swap2\n  swap1\n  pop\n  jump\t// out\n    /* \"#utility.yul\":6515:6590   */\ntag_38:\n    /* \"#utility.yul\":6558:6561   */\n  0x00\n    /* \"#utility.yul\":6579:6584   */\n  dup2\n    /* \"#utility.yul\":6572:6584   */\n  swap1\n  pop\n    /* \"#utility.yul\":6515:6590   */\n  swap2\n  swap1\n  pop\n  jump\t// out\n    /* \"#utility.yul\":6596:6865   */\ntag_39:\n    /* \"#utility.yul\":6706:6745   */\n  tag_114\n    /* \"#utility.yul\":6737:6744   */\n  dup4\n    /* \"#utility.yul\":6706:6745   */\n  tag_37\n  jump\t// in\ntag_114:\n    /* \"#utility.yul\":6767:6858   */\n  tag_115\n    /* \"#utility.yul\":6816:6857   */\n  tag_116\n    /* \"#utility.yul\":6840:6856   */\n  dup3\n    /* \"#utility.yul\":6816:6857   */\n  tag_38\n  jump\t// in\ntag_116:\n    /* \"#utility.yul\":6808:6814   */\n  dup5\n    /* \"#utility.yul\":6801:6805   */\n  dup5\n    /* \"#utility.yul\":6795:6806   */\n  sload\n    /* \"#utility.yul\":6767:6858   */\n  tag_34\n  jump\t// in\ntag_115:\n    /* \"#utility.yul\":6761:6765   */\n  dup3\n    /* \"#utility.yul\":6754:6859   */\n  sstore\n    /* \"#utility.yul\":6672:6865   */\n  pop\n    /* \"#utility.yul\":6596:6865   */\n  pop\n  pop\n  pop\n  jump\t// out\n    /* \"#utility.yul\":6871:6944   */\ntag_40:\n    /* \"#utility.yul\":6916:6919   */\n  0x00\n    /* \"#utility.yul\":6871:6944   */\n  swap1\n  jump\t// out\n    /* \"#utility.yul\":6950:7139   */\ntag_41:\n    /* \"#utility.yul\":7027:7059   */\n  tag_119\n  tag_40\n  jump\t// in\ntag_119:\n    /* \"#utility.yul\":7068:7133   */\n  tag_120\n    /* \"#utility.yul\":7126:7132   */\n  dup2\n    /* \"#utility.yul\":7118:7124   */\n  dup5\n    /* \"#utility.yul\":7112:7116   */\n  dup5\n    /* \"#utility.yul\":7068:7133   */\n  tag_39\n  jump\t// in\ntag_120:\n    /* \"#utility.yul\":7003:7139   */\n  pop\n    /* \"#utility.yul\":6950:7139   */\n  pop\n  pop\n  jump\t// out\n    /* \"#utility.yul\":7145:7331   */\ntag_42:\n    /* \"#utility.yul\":7205:7325   */\ntag_122:\n    /* \"#utility.yul\":7222:7225   */\n  dup2\n    /* \"#utility.yul\":7215:7220   */\n  dup2\n    /* \"#utility.yul\":7212:7226   */\n  lt\n    /* \"#utility.yul\":7205:7325   */\n  iszero\n  tag_124\n  jumpi\n    /* \"#utility.yul\":7276:7315   */\n  tag_125\n    /* \"#utility.yul\":7313:7314   */\n  0x00\n    /* \"#utility.yul\":7306:7311   */\n  dup3\n    /* \"#utility.yul\":7276:7315   */\n  tag_41\n  jump\t// in\ntag_125:\n    /* \"#utility.yul\":7249:7250   */\n  0x01\n    /* \"#utility.yul\":7242:7247   */\n  dup2\n    /* \"#utility.yul\":7238:7251   */\n  add\n    /* \"#utility.yul\":7229:7251   */\n  swap1\n  pop\n    /* \"#utility.yul\":7205:7325   */\n  jump(tag_122)\ntag_124:\n    /* \"#utility.yul\":7145:7331   */\n  pop\n  pop\n  jump\t// out\n    /* \"#utility.yul\":7337:7880   */\ntag_43:\n    /* \"#utility.yul\":7438:7440   */\n  0x1f\n    /* \"#utility.yul\":7433:7436   */\n  dup3\n    /* \"#utility.yul\":7430:7441   */\n  gt\n    /* \"#utility.yul\":7427:7873   */\n  iszero\n  tag_127\n  jumpi\n    /* \"#utility.yul\":7472:7510   */\n  tag_128\n    /* \"#utility.yul\":7504:7509   */\n  dup2\n    /* \"#utility.yul\":7472:7510   */\n  tag_31\n  jump\t// in\ntag_128:\n    /* \"#utility.yul\":7556:7585   */\n  tag_129\n    /* \"#utility.yul\":7574:7584   */\n  dup5\n    /* \"#utility.yul\":7556:7585   */\n  tag_32\n  jump\t// in\ntag_129:\n    /* \"#utility.yul\":7546:7554   */\n  dup2\n    /* \"#utility.yul\":7542:7586   */\n  add\n    /* \"#utility.yul\":7739:7741   */\n  0x20\n    /* \"#utility.yul\":7727:7737   */\n  dup6\n    /* \"#utility.yul\":7724:7742   */\n  lt\n    /* \"#utility.yul\":7721:7770   */\n  iszero\n  tag_130\n  jumpi\n    /* \"#utility.yul\":7760:7768   */\n  dup2\n    /* \"#utility.yul\":7745:7768   */\n  swap1\n  pop\n    /* \"#utility.yul\":7721:7770   */\ntag_130:\n    /* \"#utility.yul\":7783:7863   */\n  tag_131\n    /* \"#utility.yul\":7839:7861   */\n  tag_132\n    /* \"#utility.yul\":7857:7860   */\n  dup6\n    /* \"#utility.yul\":7839:7861   */\n  tag_32\n  jump\t// in\ntag_132:\n    /* \"#utility.yul\":7829:7837   */\n  dup4\n    /* \"#utility.yul\":7825:7862   */\n  add\n    /* \"#utility.yul\":7812:7823   */\n  dup3\n    /* \"#utility.yul\":7783:7863   */\n  tag_42\n  jump\t// in\ntag_131:\n    /* \"#utility.yul\":7442:7873   */\n  pop\n  pop\n    /* \"#utility.yul\":7427:7873   */\ntag_127:\n    /* \"#utility.yul\":7337:7880   */\n  pop\n  pop\n  pop\n  jump\t// out\n    /* \"#utility.yul\":7886:8003   */\ntag_44:\n    /* \"#utility.yul\":7940:7948   */\n  0x00\n    /* \"#utility.yul\":7990:7995   */\n  dup3\n    /* \"#utility.yul\":7984:7988   */\n  dup3\n    /* \"#utility.yul\":7980:7996   */\n  shr\n    /* \"#utility.yul\":7959:7996   */\n  swap1\n  pop\n    /* \"#utility.yul\":7886:8003   */\n  swap3\n  swap2\n  pop\n  pop\n  jump\t// out\n    /* \"#utility.yul\":8009:8178   */\ntag_45:\n    /* \"#utility.yul\":8053:8059   */\n  0x00\n    /* \"#utility.yul\":8086:8137   */\n  tag_135\n    /* \"#utility.yul\":8134:8135   */\n  0x00\n    /* \"#utility.yul\":8130:8136   */\n  not\n    /* \"#utility.yul\":8122:8127   */\n  dup5\n    /* \"#utility.yul\":8119:8120   */\n  0x08\n    /* \"#utility.yul\":8115:8128   */\n  mul\n    /* \"#utility.yul\":8086:8137   */\n  tag_44\n  jump\t// in\ntag_135:\n    /* \"#utility.yul\":8082:8138   */\n  not\n    /* \"#utility.yul\":8167:8171   */\n  dup1\n    /* \"#utility.yul\":8161:8165   */\n  dup4\n    /* \"#utility.yul\":8157:8172   */\n  and\n    /* \"#utility.yul\":8147:8172   */\n  swap2\n  pop\n    /* \"#utility.yul\":8060:8178   */\n  pop\n    /* \"#utility.yul\":8009:8178   */\n  swap3\n  swap2\n  pop\n  pop\n  jump\t// out\n    /* \"#utility.yul\":8183:8478   */\ntag_46:\n    /* \"#utility.yul\":8259:8263   */\n  0x00\n    /* \"#utility.yul\":8405:8434   */\n  tag_137\n    /* \"#utility.yul\":8430:8433   */\n  dup4\n    /* \"#utility.yul\":8424:8428   */\n  dup4\n    /* \"#utility.yul\":8405:8434   */\n  tag_45\n  jump\t// in\ntag_137:\n    /* \"#utility.yul\":8397:8434   */\n  swap2\n  pop\n    /* \"#utility.yul\":8467:8470   */\n  dup3\n    /* \"#utility.yul\":8464:8465   */\n  0x02\n    /* \"#utility.yul\":8460:8471   */\n  mul\n    /* \"#utility.yul\":8454:8458   */\n  dup3\n    /* \"#utility.yul\":8451:8472   */\n  or\n    /* \"#utility.yul\":8443:8472   */\n  swap1\n  pop\n    /* \"#utility.yul\":8183:8478   */\n  swap3\n  swap2\n  pop\n  pop\n  jump\t// out\n    /* \"#utility.yul\":8483:9878   */\ntag_9:\n    /* \"#utility.yul\":8600:8637   */\n  tag_139\n    /* \"#utility.yul\":8633:8636   */\n  dup3\n    /* \"#utility.yul\":8600:8637   */\n  tag_26\n  jump\t// in\ntag_139:\n    /* \"#utility.yul\":8702:8720   */\n  0xffffffffffffffff\n    /* \"#utility.yul\":8694:8700   */\n  dup2\n    /* \"#utility.yul\":8691:8721   */\n  gt\n    /* \"#utility.yul\":8688:8744   */\n  iszero\n  tag_140\n  jumpi\n    /* \"#utility.yul\":8724:8742   */\n  tag_141\n  tag_17\n  jump\t// in\ntag_141:\n    /* \"#utility.yul\":8688:8744   */\ntag_140:\n    /* \"#utility.yul\":8768:8806   */\n  tag_142\n    /* \"#utility.yul\":8800:8804   */\n  dup3\n    /* \"#utility.yul\":8794:8805   */\n  sload\n    /* \"#utility.yul\":8768:8806   */\n  tag_30\n  jump\t// in\ntag_142:\n    /* \"#utility.yul\":8853:8920   */\n  tag_143\n    /* \"#utility.yul\":8913:8919   */\n  dup3\n    /* \"#utility.yul\":8905:8911   */\n  dup3\n    /* \"#utility.yul\":8899:8903   */\n  dup6\n    /* \"#utility.yul\":8853:8920   */\n  tag_43\n  jump\t// in\ntag_143:\n    /* \"#utility.yul\":8947:8948   */\n  0x00\n    /* \"#utility.yul\":8971:8975   */\n  0x20\n    /* \"#utility.yul\":8958:8975   */\n  swap1\n  pop\n    /* \"#utility.yul\":9003:9005   */\n  0x1f\n    /* \"#utility.yul\":8995:9001   */\n  dup4\n    /* \"#utility.yul\":8992:9006   */\n  gt\n    /* \"#utility.yul\":9020:9021   */\n  0x01\n    /* \"#utility.yul\":9015:9633   */\n  dup2\n  eq\n  tag_145\n  jumpi\n    /* \"#utility.yul\":9677:9678   */\n  0x00\n    /* \"#utility.yul\":9694:9700   */\n  dup5\n    /* \"#utility.yul\":9691:9768   */\n  iszero\n  tag_146\n  jumpi\n    /* \"#utility.yul\":9743:9752   */\n  dup3\n    /* \"#utility.yul\":9738:9741   */\n  dup8\n    /* \"#utility.yul\":9734:9753   */\n  add\n    /* \"#utility.yul\":9728:9754   */\n  mload\n    /* \"#utility.yul\":9719:9754   */\n  swap1\n  pop\n    /* \"#utility.yul\":9691:9768   */\ntag_146:\n    /* \"#utility.yul\":9794:9861   */\n  tag_147\n    /* \"#utility.yul\":9854:9860   */\n  dup6\n    /* \"#utility.yul\":9847:9852   */\n  dup3\n    /* \"#utility.yul\":9794:9861   */\n  tag_46\n  jump\t// in\ntag_147:\n    /* \"#utility.yul\":9788:9792   */\n  dup7\n    /* \"#utility.yul\":9781:9862   */\n  sstore\n    /* \"#utility.yul\":9650:9872   */\n  pop\n    /* \"#utility.yul\":8985:9872   */\n  jump(tag_144)\n    /* \"#utility.yul\":9015:9633   */\ntag_145:\n    /* \"#utility.yul\":9067:9071   */\n  0x1f\n    /* \"#utility.yul\":9063:9072   */\n  not\n    /* \"#utility.yul\":9055:9061   */\n  dup5\n    /* \"#utility.yul\":9051:9073   */\n  and\n    /* \"#utility.yul\":9101:9138   */\n  tag_148\n    /* \"#utility.yul\":9133:9137   */\n  dup7\n    /* \"#utility.yul\":9101:9138   */\n  tag_31\n  jump\t// in\ntag_148:\n    /* \"#utility.yul\":9160:9161   */\n  0x00\n    /* \"#utility.yul\":9174:9382   */\ntag_149:\n    /* \"#utility.yul\":9188:9195   */\n  dup3\n    /* \"#utility.yul\":9185:9186   */\n  dup2\n    /* \"#utility.yul\":9182:9196   */\n  lt\n    /* \"#utility.yul\":9174:9382   */\n  iszero\n  tag_151\n  jumpi\n    /* \"#utility.yul\":9267:9276   */\n  dup5\n    /* \"#utility.yul\":9262:9265   */\n  dup10\n    /* \"#utility.yul\":9258:9277   */\n  add\n    /* \"#utility.yul\":9252:9278   */\n  mload\n    /* \"#utility.yul\":9244:9250   */\n  dup3\n    /* \"#utility.yul\":9237:9279   */\n  sstore\n    /* \"#utility.yul\":9318:9319   */\n  0x01\n    /* \"#utility.yul\":9310:9316   */\n  dup3\n    /* \"#utility.yul\":9306:9320   */\n  add\n    /* \"#utility.yul\":9296:9320   */\n  swap2\n  pop\n    /* \"#utility.yul\":9365:9367   */\n  0x20\n    /* \"#utility.yul\":9354:9363   */\n  dup6\n    /* \"#utility.yul\":9350:9368   */\n  add\n    /* \"#utility.yul\":9337:9368   */\n  swap5\n  pop\n    /* \"#utility.yul\":9211:9215   */\n  0x20\n    /* \"#utility.yul\":9208:9209   */\n  dup2\n    /* \"#utility.yul\":9204:9216   */\n  add\n    /* \"#utility.yul\":9199:9216   */\n  swap1\n  pop\n    /* \"#utility.yul\":9174:9382   */\n  jump(tag_149)\ntag_151:\n    /* \"#utility.yul\":9410:9416   */\n  dup7\n    /* \"#utility.yul\":9401:9408   */\n  dup4\n    /* \"#utility.yul\":9398:9417   */\n  lt\n    /* \"#utility.yul\":9395:9574   */\n  iszero\n  tag_152\n  jumpi\n    /* \"#utility.yul\":9468:9477   */\n  dup5\n    /* \"#utility.yul\":9463:9466   */\n  dup10\n    /* \"#utility.yul\":9459:9478   */\n  add\n    /* \"#utility.yul\":9453:9479   */\n  mload\n    /* \"#utility.yul\":9511:9559   */\n  tag_153\n    /* \"#utility.yul\":9553:9557   */\n  0x1f\n    /* \"#utility.yul\":9545:9551   */\n  dup10\n    /* \"#utility.yul\":9541:9558   */\n  and\n    /* \"#utility.yul\":9530:9539   */\n  dup3\n    /* \"#utility.yul\":9511:9559   */\n  tag_45\n  jump\t// in\ntag_153:\n    /* \"#utility.yul\":9503:9509   */\n  dup4\n    /* \"#utility.yul\":9496:9560   */\n  sstore\n    /* \"#utility.yul\":9418:9574   */\n  pop\n    /* \"#utility.yul\":9395:9574   */\ntag_152:\n    /* \"#utility.yul\":9620:9621   */\n  0x01\n    /* \"#utility.yul\":9616:9617   */\n  0x02\n    /* \"#utility.yul\":9608:9614   */\n  dup9\n    /* \"#utility.yul\":9604:9618   */\n  mul\n    /* \"#utility.yul\":9600:9622   */\n  add\n    /* \"#utility.yul\":9594:9598   */\n  dup9\n    /* \"#utility.yul\":9587:9623   */\n  sstore\n    /* \"#utility.yul\":9022:9633   */\n  pop\n  pop\n  pop\n    /* \"#utility.yul\":8985:9872   */\ntag_144:\n  pop\n    /* \"#utility.yul\":8575:9878   */\n  pop\n  pop\n  pop\n    /* \"#utility.yul\":8483:9878   */\n  pop\n  pop\n  jump\t// out\n    /* \"variables_nativas.sol\":96:1284  contract Variables_Nativas {... */\ntag_10:\n  dataSize(sub_0)\n  dup1\n  dataOffset(sub_0)\n  0x00\n  codecopy\n  0x00\n  return\nstop\n\nsub_0: assembly {\n        /* \"variables_nativas.sol\":96:1284  contract Variables_Nativas {... */\n      mstore(0x40, 0x80)\n      callvalue\n      dup1\n      iszero\n      tag_1\n      jumpi\n      0x00\n      dup1\n      revert\n    tag_1:\n      pop\n      jumpi(tag_2, lt(calldatasize, 0x04))\n      shr(0xe0, calldataload(0x00))\n      dup1\n      0xce410d53\n      gt\n      tag_10\n      jumpi\n      dup1\n      0xce410d53\n      eq\n      tag_6\n      jumpi\n      dup1\n      0xdf77a62e\n      eq\n      tag_7\n      jumpi\n      dup1\n      0xf7ae9171\n      eq\n      tag_8\n      jumpi\n      dup1\n      0xf950fc6d\n      eq\n      tag_9\n      jumpi\n      jump(tag_2)\n    tag_10:\n      dup1\n      0x0bcd3b33\n      eq\n      tag_3\n      jumpi\n      dup1\n      0x17d7de7c\n      eq\n      tag_4\n      jumpi\n      dup1\n      0x38304639\n      eq\n      tag_5\n      jumpi\n    tag_2:\n      0x00\n      dup1\n      revert\n        /* \"variables_nativas.sol\":1200:1279  function getBytes() public view returns (bytes1){... */\n    tag_3:\n      tag_11\n      tag_12\n      jump\t// in\n    tag_11:\n      mload(0x40)\n      tag_13\n      swap2\n      swap1\n      tag_14\n      jump\t// in\n    tag_13:\n      mload(0x40)\n      dup1\n      swap2\n      sub\n      swap1\n      return\n        /* \"variables_nativas.sol\":381:470  function getName() public view returns (string memory) {... */\n    tag_4:\n      tag_15\n      tag_16\n      jump\t// in\n    tag_15:\n      mload(0x40)\n      tag_17\n      swap2\n      swap1\n      tag_18\n      jump\t// in\n    tag_17:\n      mload(0x40)\n      dup1\n      swap2\n      sub\n      swap1\n      return\n        /* \"variables_nativas.sol\":974:1046  address public  address_var = 0x1d870f1210e66cba98093682b84d4491Ec04141b */\n    tag_5:\n      tag_19\n      tag_20\n      jump\t// in\n    tag_19:\n      mload(0x40)\n      tag_21\n      swap2\n      swap1\n      tag_22\n      jump\t// in\n    tag_21:\n      mload(0x40)\n      dup1\n      swap2\n      sub\n      swap1\n      return\n        /* \"variables_nativas.sol\":705:734  uint256 public uint_256 = 234 */\n    tag_6:\n      tag_23\n      tag_24\n      jump\t// in\n    tag_23:\n      mload(0x40)\n      tag_25\n      swap2\n      swap1\n      tag_26\n      jump\t// in\n    tag_25:\n      mload(0x40)\n      dup1\n      swap2\n      sub\n      swap1\n      return\n        /* \"variables_nativas.sol\":819:841  int8 public int_8 = -1 */\n    tag_7:\n      tag_27\n      tag_28\n      jump\t// in\n    tag_27:\n      mload(0x40)\n      tag_29\n      swap2\n      swap1\n      tag_30\n      jump\t// in\n    tag_29:\n      mload(0x40)\n      dup1\n      swap2\n      sub\n      swap1\n      return\n        /* \"variables_nativas.sol\":848:875  int256 public int_256 = 456 */\n    tag_8:\n      tag_31\n      tag_32\n      jump\t// in\n    tag_31:\n      mload(0x40)\n      tag_33\n      swap2\n      swap1\n      tag_34\n      jump\t// in\n    tag_33:\n      mload(0x40)\n      dup1\n      swap2\n      sub\n      swap1\n      return\n        /* \"variables_nativas.sol\":675:698  uint8 public uint_8 = 1 */\n    tag_9:\n      tag_35\n      tag_36\n      jump\t// in\n    tag_35:\n      mload(0x40)\n      tag_37\n      swap2\n      swap1\n      tag_38\n      jump\t// in\n    tag_37:\n      mload(0x40)\n      dup1\n      swap2\n      sub\n      swap1\n      return\n        /* \"variables_nativas.sol\":1200:1279  function getBytes() public view returns (bytes1){... */\n    tag_12:\n        /* \"variables_nativas.sol\":1241:1247  bytes1 */\n      0x00\n        /* \"variables_nativas.sol\":1266:1271  c_var */\n      0x05\n      0x16\n      swap1\n      sload\n      swap1\n      0x0100\n      exp\n      swap1\n      div\n      0xf8\n      shl\n        /* \"variables_nativas.sol\":1259:1271  return c_var */\n      swap1\n      pop\n        /* \"variables_nativas.sol\":1200:1279  function getBytes() public view returns (bytes1){... */\n      swap1\n      jump\t// out\n        /* \"variables_nativas.sol\":381:470  function getName() public view returns (string memory) {... */\n    tag_16:\n        /* \"variables_nativas.sol\":421:434  string memory */\n      0x60\n        /* \"variables_nativas.sol\":454:462  fullName */\n      0x00\n        /* \"variables_nativas.sol\":447:462  return fullName */\n      dup1\n      sload\n      tag_41\n      swap1\n      tag_42\n      jump\t// in\n    tag_41:\n      dup1\n      0x1f\n      add\n      0x20\n      dup1\n      swap2\n      div\n      mul\n      0x20\n      add\n      mload(0x40)\n      swap1\n      dup2\n      add\n      0x40\n      mstore\n      dup1\n      swap3\n      swap2\n      swap1\n      dup2\n      dup2\n      mstore\n      0x20\n      add\n      dup3\n      dup1\n      sload\n      tag_43\n      swap1\n      tag_42\n      jump\t// in\n    tag_43:\n      dup1\n      iszero\n      tag_44\n      jumpi\n      dup1\n      0x1f\n      lt\n      tag_45\n      jumpi\n      0x0100\n      dup1\n      dup4\n      sload\n      div\n      mul\n      dup4\n      mstore\n      swap2\n      0x20\n      add\n      swap2\n      jump(tag_44)\n    tag_45:\n      dup3\n      add\n      swap2\n      swap1\n      0x00\n      mstore\n      keccak256(0x00, 0x20)\n      swap1\n    tag_46:\n      dup2\n      sload\n      dup2\n      mstore\n      swap1\n      0x01\n      add\n      swap1\n      0x20\n      add\n      dup1\n      dup4\n      gt\n      tag_46\n      jumpi\n      dup3\n      swap1\n      sub\n      0x1f\n      and\n      dup3\n      add\n      swap2\n    tag_44:\n      pop\n      pop\n      pop\n      pop\n      pop\n      swap1\n      pop\n        /* \"variables_nativas.sol\":381:470  function getName() public view returns (string memory) {... */\n      swap1\n      jump\t// out\n        /* \"variables_nativas.sol\":974:1046  address public  address_var = 0x1d870f1210e66cba98093682b84d4491Ec04141b */\n    tag_20:\n      0x05\n      0x00\n      swap1\n      sload\n      swap1\n      0x0100\n      exp\n      swap1\n      div\n      0xffffffffffffffffffffffffffffffffffffffff\n      and\n      dup2\n      jump\t// out\n        /* \"variables_nativas.sol\":705:734  uint256 public uint_256 = 234 */\n    tag_24:\n      sload(0x02)\n      dup2\n      jump\t// out\n        /* \"variables_nativas.sol\":819:841  int8 public int_8 = -1 */\n    tag_28:\n      0x03\n      0x00\n      swap1\n      sload\n      swap1\n      0x0100\n      exp\n      swap1\n      div\n      0x00\n      signextend\n      dup2\n      jump\t// out\n        /* \"variables_nativas.sol\":848:875  int256 public int_256 = 456 */\n    tag_32:\n      sload(0x04)\n      dup2\n      jump\t// out\n        /* \"variables_nativas.sol\":675:698  uint8 public uint_8 = 1 */\n    tag_36:\n      0x01\n      0x00\n      swap1\n      sload\n      swap1\n      0x0100\n      exp\n      swap1\n      div\n      0xff\n      and\n      dup2\n      jump\t// out\n        /* \"#utility.yul\":7:156   */\n    tag_47:\n        /* \"#utility.yul\":43:50   */\n      0x00\n        /* \"#utility.yul\":83:149   */\n      0xff00000000000000000000000000000000000000000000000000000000000000\n        /* \"#utility.yul\":76:81   */\n      dup3\n        /* \"#utility.yul\":72:150   */\n      and\n        /* \"#utility.yul\":61:150   */\n      swap1\n      pop\n        /* \"#utility.yul\":7:156   */\n      swap2\n      swap1\n      pop\n      jump\t// out\n        /* \"#utility.yul\":162:277   */\n    tag_48:\n        /* \"#utility.yul\":247:270   */\n      tag_69\n        /* \"#utility.yul\":264:269   */\n      dup2\n        /* \"#utility.yul\":247:270   */\n      tag_47\n      jump\t// in\n    tag_69:\n        /* \"#utility.yul\":242:245   */\n      dup3\n        /* \"#utility.yul\":235:271   */\n      mstore\n        /* \"#utility.yul\":162:277   */\n      pop\n      pop\n      jump\t// out\n        /* \"#utility.yul\":283:501   */\n    tag_14:\n        /* \"#utility.yul\":374:378   */\n      0x00\n        /* \"#utility.yul\":412:414   */\n      0x20\n        /* \"#utility.yul\":401:410   */\n      dup3\n        /* \"#utility.yul\":397:415   */\n      add\n        /* \"#utility.yul\":389:415   */\n      swap1\n      pop\n        /* \"#utility.yul\":425:494   */\n      tag_71\n        /* \"#utility.yul\":491:492   */\n      0x00\n        /* \"#utility.yul\":480:489   */\n      dup4\n        /* \"#utility.yul\":476:493   */\n      add\n        /* \"#utility.yul\":467:473   */\n      dup5\n        /* \"#utility.yul\":425:494   */\n      tag_48\n      jump\t// in\n    tag_71:\n        /* \"#utility.yul\":283:501   */\n      swap3\n      swap2\n      pop\n      pop\n      jump\t// out\n        /* \"#utility.yul\":507:606   */\n    tag_49:\n        /* \"#utility.yul\":559:565   */\n      0x00\n        /* \"#utility.yul\":593:598   */\n      dup2\n        /* \"#utility.yul\":587:599   */\n      mload\n        /* \"#utility.yul\":577:599   */\n      swap1\n      pop\n        /* \"#utility.yul\":507:606   */\n      swap2\n      swap1\n      pop\n      jump\t// out\n        /* \"#utility.yul\":612:781   */\n    tag_50:\n        /* \"#utility.yul\":696:707   */\n      0x00\n        /* \"#utility.yul\":730:736   */\n      dup3\n        /* \"#utility.yul\":725:728   */\n      dup3\n        /* \"#utility.yul\":718:737   */\n      mstore\n        /* \"#utility.yul\":770:774   */\n      0x20\n        /* \"#utility.yul\":765:768   */\n      dup3\n        /* \"#utility.yul\":761:775   */\n      add\n        /* \"#utility.yul\":746:775   */\n      swap1\n      pop\n        /* \"#utility.yul\":612:781   */\n      swap3\n      swap2\n      pop\n      pop\n      jump\t// out\n        /* \"#utility.yul\":787:926   */\n    tag_51:\n        /* \"#utility.yul\":876:882   */\n      dup3\n        /* \"#utility.yul\":871:874   */\n      dup2\n        /* \"#utility.yul\":866:869   */\n      dup4\n        /* \"#utility.yul\":860:883   */\n      mcopy\n        /* \"#utility.yul\":917:918   */\n      0x00\n        /* \"#utility.yul\":908:914   */\n      dup4\n        /* \"#utility.yul\":903:906   */\n      dup4\n        /* \"#utility.yul\":899:915   */\n      add\n        /* \"#utility.yul\":892:919   */\n      mstore\n        /* \"#utility.yul\":787:926   */\n      pop\n      pop\n      pop\n      jump\t// out\n        /* \"#utility.yul\":932:1034   */\n    tag_52:\n        /* \"#utility.yul\":973:979   */\n      0x00\n        /* \"#utility.yul\":1024:1026   */\n      0x1f\n        /* \"#utility.yul\":1020:1027   */\n      not\n        /* \"#utility.yul\":1015:1017   */\n      0x1f\n        /* \"#utility.yul\":1008:1013   */\n      dup4\n        /* \"#utility.yul\":1004:1018   */\n      add\n        /* \"#utility.yul\":1000:1028   */\n      and\n        /* \"#utility.yul\":990:1028   */\n      swap1\n      pop\n        /* \"#utility.yul\":932:1034   */\n      swap2\n      swap1\n      pop\n      jump\t// out\n        /* \"#utility.yul\":1040:1417   */\n    tag_53:\n        /* \"#utility.yul\":1128:1131   */\n      0x00\n        /* \"#utility.yul\":1156:1195   */\n      tag_77\n        /* \"#utility.yul\":1189:1194   */\n      dup3\n        /* \"#utility.yul\":1156:1195   */\n      tag_49\n      jump\t// in\n    tag_77:\n        /* \"#utility.yul\":1211:1282   */\n      tag_78\n        /* \"#utility.yul\":1275:1281   */\n      dup2\n        /* \"#utility.yul\":1270:1273   */\n      dup6\n        /* \"#utility.yul\":1211:1282   */\n      tag_50\n      jump\t// in\n    tag_78:\n        /* \"#utility.yul\":1204:1282   */\n      swap4\n      pop\n        /* \"#utility.yul\":1291:1356   */\n      tag_79\n        /* \"#utility.yul\":1349:1355   */\n      dup2\n        /* \"#utility.yul\":1344:1347   */\n      dup6\n        /* \"#utility.yul\":1337:1341   */\n      0x20\n        /* \"#utility.yul\":1330:1335   */\n      dup7\n        /* \"#utility.yul\":1326:1342   */\n      add\n        /* \"#utility.yul\":1291:1356   */\n      tag_51\n      jump\t// in\n    tag_79:\n        /* \"#utility.yul\":1381:1410   */\n      tag_80\n        /* \"#utility.yul\":1403:1409   */\n      dup2\n        /* \"#utility.yul\":1381:1410   */\n      tag_52\n      jump\t// in\n    tag_80:\n        /* \"#utility.yul\":1376:1379   */\n      dup5\n        /* \"#utility.yul\":1372:1411   */\n      add\n        /* \"#utility.yul\":1365:1411   */\n      swap2\n      pop\n        /* \"#utility.yul\":1132:1417   */\n      pop\n        /* \"#utility.yul\":1040:1417   */\n      swap3\n      swap2\n      pop\n      pop\n      jump\t// out\n        /* \"#utility.yul\":1423:1736   */\n    tag_18:\n        /* \"#utility.yul\":1536:1540   */\n      0x00\n        /* \"#utility.yul\":1574:1576   */\n      0x20\n        /* \"#utility.yul\":1563:1572   */\n      dup3\n        /* \"#utility.yul\":1559:1577   */\n      add\n        /* \"#utility.yul\":1551:1577   */\n      swap1\n      pop\n        /* \"#utility.yul\":1623:1632   */\n      dup2\n        /* \"#utility.yul\":1617:1621   */\n      dup2\n        /* \"#utility.yul\":1613:1633   */\n      sub\n        /* \"#utility.yul\":1609:1610   */\n      0x00\n        /* \"#utility.yul\":1598:1607   */\n      dup4\n        /* \"#utility.yul\":1594:1611   */\n      add\n        /* \"#utility.yul\":1587:1634   */\n      mstore\n        /* \"#utility.yul\":1651:1729   */\n      tag_82\n        /* \"#utility.yul\":1724:1728   */\n      dup2\n        /* \"#utility.yul\":1715:1721   */\n      dup5\n        /* \"#utility.yul\":1651:1729   */\n      tag_53\n      jump\t// in\n    tag_82:\n        /* \"#utility.yul\":1643:1729   */\n      swap1\n      pop\n        /* \"#utility.yul\":1423:1736   */\n      swap3\n      swap2\n      pop\n      pop\n      jump\t// out\n        /* \"#utility.yul\":1742:1868   */\n    tag_54:\n        /* \"#utility.yul\":1779:1786   */\n      0x00\n        /* \"#utility.yul\":1819:1861   */\n      0xffffffffffffffffffffffffffffffffffffffff\n        /* \"#utility.yul\":1812:1817   */\n      dup3\n        /* \"#utility.yul\":1808:1862   */\n      and\n        /* \"#utility.yul\":1797:1862   */\n      swap1\n      pop\n        /* \"#utility.yul\":1742:1868   */\n      swap2\n      swap1\n      pop\n      jump\t// out\n        /* \"#utility.yul\":1874:1970   */\n    tag_55:\n        /* \"#utility.yul\":1911:1918   */\n      0x00\n        /* \"#utility.yul\":1940:1964   */\n      tag_85\n        /* \"#utility.yul\":1958:1963   */\n      dup3\n        /* \"#utility.yul\":1940:1964   */\n      tag_54\n      jump\t// in\n    tag_85:\n        /* \"#utility.yul\":1929:1964   */\n      swap1\n      pop\n        /* \"#utility.yul\":1874:1970   */\n      swap2\n      swap1\n      pop\n      jump\t// out\n        /* \"#utility.yul\":1976:2094   */\n    tag_56:\n        /* \"#utility.yul\":2063:2087   */\n      tag_87\n        /* \"#utility.yul\":2081:2086   */\n      dup2\n        /* \"#utility.yul\":2063:2087   */\n      tag_55\n      jump\t// in\n    tag_87:\n        /* \"#utility.yul\":2058:2061   */\n      dup3\n        /* \"#utility.yul\":2051:2088   */\n      mstore\n        /* \"#utility.yul\":1976:2094   */\n      pop\n      pop\n      jump\t// out\n        /* \"#utility.yul\":2100:2322   */\n    tag_22:\n        /* \"#utility.yul\":2193:2197   */\n      0x00\n        /* \"#utility.yul\":2231:2233   */\n      0x20\n        /* \"#utility.yul\":2220:2229   */\n      dup3\n        /* \"#utility.yul\":2216:2234   */\n      add\n        /* \"#utility.yul\":2208:2234   */\n      swap1\n      pop\n        /* \"#utility.yul\":2244:2315   */\n      tag_89\n        /* \"#utility.yul\":2312:2313   */\n      0x00\n        /* \"#utility.yul\":2301:2310   */\n      dup4\n        /* \"#utility.yul\":2297:2314   */\n      add\n        /* \"#utility.yul\":2288:2294   */\n      dup5\n        /* \"#utility.yul\":2244:2315   */\n      tag_56\n      jump\t// in\n    tag_89:\n        /* \"#utility.yul\":2100:2322   */\n      swap3\n      swap2\n      pop\n      pop\n      jump\t// out\n        /* \"#utility.yul\":2328:2405   */\n    tag_57:\n        /* \"#utility.yul\":2365:2372   */\n      0x00\n        /* \"#utility.yul\":2394:2399   */\n      dup2\n        /* \"#utility.yul\":2383:2399   */\n      swap1\n      pop\n        /* \"#utility.yul\":2328:2405   */\n      swap2\n      swap1\n      pop\n      jump\t// out\n        /* \"#utility.yul\":2411:2529   */\n    tag_58:\n        /* \"#utility.yul\":2498:2522   */\n      tag_92\n        /* \"#utility.yul\":2516:2521   */\n      dup2\n        /* \"#utility.yul\":2498:2522   */\n      tag_57\n      jump\t// in\n    tag_92:\n        /* \"#utility.yul\":2493:2496   */\n      dup3\n        /* \"#utility.yul\":2486:2523   */\n      mstore\n        /* \"#utility.yul\":2411:2529   */\n      pop\n      pop\n      jump\t// out\n        /* \"#utility.yul\":2535:2757   */\n    tag_26:\n        /* \"#utility.yul\":2628:2632   */\n      0x00\n        /* \"#utility.yul\":2666:2668   */\n      0x20\n        /* \"#utility.yul\":2655:2664   */\n      dup3\n        /* \"#utility.yul\":2651:2669   */\n      add\n        /* \"#utility.yul\":2643:2669   */\n      swap1\n      pop\n        /* \"#utility.yul\":2679:2750   */\n      tag_94\n        /* \"#utility.yul\":2747:2748   */\n      0x00\n        /* \"#utility.yul\":2736:2745   */\n      dup4\n        /* \"#utility.yul\":2732:2749   */\n      add\n        /* \"#utility.yul\":2723:2729   */\n      dup5\n        /* \"#utility.yul\":2679:2750   */\n      tag_58\n      jump\t// in\n    tag_94:\n        /* \"#utility.yul\":2535:2757   */\n      swap3\n      swap2\n      pop\n      pop\n      jump\t// out\n        /* \"#utility.yul\":2763:2852   */\n    tag_59:\n        /* \"#utility.yul\":2797:2804   */\n      0x00\n        /* \"#utility.yul\":2840:2845   */\n      dup2\n        /* \"#utility.yul\":2837:2838   */\n      0x00\n        /* \"#utility.yul\":2826:2846   */\n      signextend\n        /* \"#utility.yul\":2815:2846   */\n      swap1\n      pop\n        /* \"#utility.yul\":2763:2852   */\n      swap2\n      swap1\n      pop\n      jump\t// out\n        /* \"#utility.yul\":2858:2967   */\n    tag_60:\n        /* \"#utility.yul\":2939:2960   */\n      tag_97\n        /* \"#utility.yul\":2954:2959   */\n      dup2\n        /* \"#utility.yul\":2939:2960   */\n      tag_59\n      jump\t// in\n    tag_97:\n        /* \"#utility.yul\":2934:2937   */\n      dup3\n        /* \"#utility.yul\":2927:2961   */\n      mstore\n        /* \"#utility.yul\":2858:2967   */\n      pop\n      pop\n      jump\t// out\n        /* \"#utility.yul\":2973:3183   */\n    tag_30:\n        /* \"#utility.yul\":3060:3064   */\n      0x00\n        /* \"#utility.yul\":3098:3100   */\n      0x20\n        /* \"#utility.yul\":3087:3096   */\n      dup3\n        /* \"#utility.yul\":3083:3101   */\n      add\n        /* \"#utility.yul\":3075:3101   */\n      swap1\n      pop\n        /* \"#utility.yul\":3111:3176   */\n      tag_99\n        /* \"#utility.yul\":3173:3174   */\n      0x00\n        /* \"#utility.yul\":3162:3171   */\n      dup4\n        /* \"#utility.yul\":3158:3175   */\n      add\n        /* \"#utility.yul\":3149:3155   */\n      dup5\n        /* \"#utility.yul\":3111:3176   */\n      tag_60\n      jump\t// in\n    tag_99:\n        /* \"#utility.yul\":2973:3183   */\n      swap3\n      swap2\n      pop\n      pop\n      jump\t// out\n        /* \"#utility.yul\":3189:3265   */\n    tag_61:\n        /* \"#utility.yul\":3225:3232   */\n      0x00\n        /* \"#utility.yul\":3254:3259   */\n      dup2\n        /* \"#utility.yul\":3243:3259   */\n      swap1\n      pop\n        /* \"#utility.yul\":3189:3265   */\n      swap2\n      swap1\n      pop\n      jump\t// out\n        /* \"#utility.yul\":3271:3386   */\n    tag_62:\n        /* \"#utility.yul\":3356:3379   */\n      tag_102\n        /* \"#utility.yul\":3373:3378   */\n      dup2\n        /* \"#utility.yul\":3356:3379   */\n      tag_61\n      jump\t// in\n    tag_102:\n        /* \"#utility.yul\":3351:3354   */\n      dup3\n        /* \"#utility.yul\":3344:3380   */\n      mstore\n        /* \"#utility.yul\":3271:3386   */\n      pop\n      pop\n      jump\t// out\n        /* \"#utility.yul\":3392:3610   */\n    tag_34:\n        /* \"#utility.yul\":3483:3487   */\n      0x00\n        /* \"#utility.yul\":3521:3523   */\n      0x20\n        /* \"#utility.yul\":3510:3519   */\n      dup3\n        /* \"#utility.yul\":3506:3524   */\n      add\n        /* \"#utility.yul\":3498:3524   */\n      swap1\n      pop\n        /* \"#utility.yul\":3534:3603   */\n      tag_104\n        /* \"#utility.yul\":3600:3601   */\n      0x00\n        /* \"#utility.yul\":3589:3598   */\n      dup4\n        /* \"#utility.yul\":3585:3602   */\n      add\n        /* \"#utility.yul\":3576:3582   */\n      dup5\n        /* \"#utility.yul\":3534:3603   */\n      tag_62\n      jump\t// in\n    tag_104:\n        /* \"#utility.yul\":3392:3610   */\n      swap3\n      swap2\n      pop\n      pop\n      jump\t// out\n        /* \"#utility.yul\":3616:3702   */\n    tag_63:\n        /* \"#utility.yul\":3651:3658   */\n      0x00\n        /* \"#utility.yul\":3691:3695   */\n      0xff\n        /* \"#utility.yul\":3684:3689   */\n      dup3\n        /* \"#utility.yul\":3680:3696   */\n      and\n        /* \"#utility.yul\":3669:3696   */\n      swap1\n      pop\n        /* \"#utility.yul\":3616:3702   */\n      swap2\n      swap1\n      pop\n      jump\t// out\n        /* \"#utility.yul\":3708:3820   */\n    tag_64:\n        /* \"#utility.yul\":3791:3813   */\n      tag_107\n        /* \"#utility.yul\":3807:3812   */\n      dup2\n        /* \"#utility.yul\":3791:3813   */\n      tag_63\n      jump\t// in\n    tag_107:\n        /* \"#utility.yul\":3786:3789   */\n      dup3\n        /* \"#utility.yul\":3779:3814   */\n      mstore\n        /* \"#utility.yul\":3708:3820   */\n      pop\n      pop\n      jump\t// out\n        /* \"#utility.yul\":3826:4040   */\n    tag_38:\n        /* \"#utility.yul\":3915:3919   */\n      0x00\n        /* \"#utility.yul\":3953:3955   */\n      0x20\n        /* \"#utility.yul\":3942:3951   */\n      dup3\n        /* \"#utility.yul\":3938:3956   */\n      add\n        /* \"#utility.yul\":3930:3956   */\n      swap1\n      pop\n        /* \"#utility.yul\":3966:4033   */\n      tag_109\n        /* \"#utility.yul\":4030:4031   */\n      0x00\n        /* \"#utility.yul\":4019:4028   */\n      dup4\n        /* \"#utility.yul\":4015:4032   */\n      add\n        /* \"#utility.yul\":4006:4012   */\n      dup5\n        /* \"#utility.yul\":3966:4033   */\n      tag_64\n      jump\t// in\n    tag_109:\n        /* \"#utility.yul\":3826:4040   */\n      swap3\n      swap2\n      pop\n      pop\n      jump\t// out\n        /* \"#utility.yul\":4046:4226   */\n    tag_65:\n        /* \"#utility.yul\":4094:4171   */\n      0x4e487b7100000000000000000000000000000000000000000000000000000000\n        /* \"#utility.yul\":4091:4092   */\n      0x00\n        /* \"#utility.yul\":4084:4172   */\n      mstore\n        /* \"#utility.yul\":4191:4195   */\n      0x22\n        /* \"#utility.yul\":4188:4189   */\n      0x04\n        /* \"#utility.yul\":4181:4196   */\n      mstore\n        /* \"#utility.yul\":4215:4219   */\n      0x24\n        /* \"#utility.yul\":4212:4213   */\n      0x00\n        /* \"#utility.yul\":4205:4220   */\n      revert\n        /* \"#utility.yul\":4232:4552   */\n    tag_42:\n        /* \"#utility.yul\":4276:4282   */\n      0x00\n        /* \"#utility.yul\":4313:4314   */\n      0x02\n        /* \"#utility.yul\":4307:4311   */\n      dup3\n        /* \"#utility.yul\":4303:4315   */\n      div\n        /* \"#utility.yul\":4293:4315   */\n      swap1\n      pop\n        /* \"#utility.yul\":4360:4361   */\n      0x01\n        /* \"#utility.yul\":4354:4358   */\n      dup3\n        /* \"#utility.yul\":4350:4362   */\n      and\n        /* \"#utility.yul\":4381:4399   */\n      dup1\n        /* \"#utility.yul\":4371:4452   */\n      tag_112\n      jumpi\n        /* \"#utility.yul\":4437:4441   */\n      0x7f\n        /* \"#utility.yul\":4429:4435   */\n      dup3\n        /* \"#utility.yul\":4425:4442   */\n      and\n        /* \"#utility.yul\":4415:4442   */\n      swap2\n      pop\n        /* \"#utility.yul\":4371:4452   */\n    tag_112:\n        /* \"#utility.yul\":4499:4501   */\n      0x20\n        /* \"#utility.yul\":4491:4497   */\n      dup3\n        /* \"#utility.yul\":4488:4502   */\n      lt\n        /* \"#utility.yul\":4468:4486   */\n      dup2\n        /* \"#utility.yul\":4465:4503   */\n      sub\n        /* \"#utility.yul\":4462:4546   */\n      tag_113\n      jumpi\n        /* \"#utility.yul\":4518:4536   */\n      tag_114\n      tag_65\n      jump\t// in\n    tag_114:\n        /* \"#utility.yul\":4462:4546   */\n    tag_113:\n        /* \"#utility.yul\":4283:4552   */\n      pop\n        /* \"#utility.yul\":4232:4552   */\n      swap2\n      swap1\n      pop\n      jump\t// out\n\n    auxdata: 0xa2646970667358221220bd5e38ebb604b01d5ad9319fab41356f172e94c123b6ac249ac6b323b60e9a1e64736f6c634300081a0033\n}\n",
				"bytecode": {
					"linkReferences": {},
					"object": "60806040526001805f6101000a81548160ff021916908360ff16021790555060ea6002557fffffffffffffffffffffffffffffffffffffffffffffffffffffffffffffffff60035f6101000a81548160ff02191690835f0b60ff1602179055506101c8600455731d870f1210e66cba98093682b84d4491ec04141b60055f6101000a81548173ffffffffffffffffffffffffffffffffffffffff021916908373ffffffffffffffffffffffffffffffffffffffff16021790555060b560f81b600560146101000a81548160ff021916908360f81c0217905550605660f81b600560156101000a81548160ff021916908360f81c0217905550348015610102575f80fd5b50604051610b70380380610b70833981810160405281019061012491906102a5565b80604051602001610135919061037c565b6040516020818303038152906040525f908161015191906105b3565b5050610682565b5f604051905090565b5f80fd5b5f80fd5b5f80fd5b5f80fd5b5f601f19601f8301169050919050565b7f4e487b71000000000000000000000000000000000000000000000000000000005f52604160045260245ffd5b6101b782610171565b810181811067ffffffffffffffff821117156101d6576101d5610181565b5b80604052505050565b5f6101e8610158565b90506101f482826101ae565b919050565b5f67ffffffffffffffff82111561021357610212610181565b5b61021c82610171565b9050602081019050919050565b8281835e5f83830152505050565b5f610249610244846101f9565b6101df565b9050828152602081018484840111156102655761026461016d565b5b610270848285610229565b509392505050565b5f82601f83011261028c5761028b610169565b5b815161029c848260208601610237565b91505092915050565b5f602082840312156102ba576102b9610161565b5b5f82015167ffffffffffffffff8111156102d7576102d6610165565b5b6102e384828501610278565b91505092915050565b7f4d69206e6f6d6272652065733a00000000000000000000000000000000000000815250565b7f2000000000000000000000000000000000000000000000000000000000000000815250565b5f81519050919050565b5f81905092915050565b5f61035682610338565b6103608185610342565b9350610370818560208601610229565b80840191505092915050565b5f610386826102ec565b600d8201915061039582610312565b6001820191506103a5828461034c565b915081905092915050565b7f4e487b71000000000000000000000000000000000000000000000000000000005f52602260045260245ffd5b5f60028204905060018216806103f457607f821691505b602082108103610407576104066103b0565b5b50919050565b5f819050815f5260205f209050919050565b5f6020601f8301049050919050565b5f82821b905092915050565b5f600883026104697fffffffffffffffffffffffffffffffffffffffffffffffffffffffffffffffff8261042e565b610473868361042e565b95508019841693508086168417925050509392505050565b5f819050919050565b5f819050919050565b5f6104b76104b26104ad8461048b565b610494565b61048b565b9050919050565b5f819050919050565b6104d08361049d565b6104e46104dc826104be565b84845461043a565b825550505050565b5f90565b6104f86104ec565b6105038184846104c7565b505050565b5b818110156105265761051b5f826104f0565b600181019050610509565b5050565b601f82111561056b5761053c8161040d565b6105458461041f565b81016020851015610554578190505b6105686105608561041f565b830182610508565b50505b505050565b5f82821c905092915050565b5f61058b5f1984600802610570565b1980831691505092915050565b5f6105a3838361057c565b9150826002028217905092915050565b6105bc82610338565b67ffffffffffffffff8111156105d5576105d4610181565b5b6105df82546103dd565b6105ea82828561052a565b5f60209050601f83116001811461061b575f8415610609578287015190505b6106138582610598565b86555061067a565b601f1984166106298661040d565b5f5b828110156106505784890151825560018201915060208501945060208101905061062b565b8683101561066d5784890151610669601f89168261057c565b8355505b6001600288020188555050505b505050505050565b6104e18061068f5f395ff3fe608060405234801561000f575f80fd5b506004361061007b575f3560e01c8063ce410d5311610059578063ce410d53146100d9578063df77a62e146100f7578063f7ae917114610115578063f950fc6d146101335761007b565b80630bcd3b331461007f57806317d7de7c1461009d57806338304639146100bb575b5f80fd5b610087610151565b6040516100949190610284565b60405180910390f35b6100a5610167565b6040516100b2919061030d565b60405180910390f35b6100c36101f6565b6040516100d0919061036c565b60405180910390f35b6100e161021b565b6040516100ee919061039d565b60405180910390f35b6100ff610221565b60405161010c91906103d0565b60405180910390f35b61011d610232565b60405161012a9190610401565b60405180910390f35b61013b610238565b6040516101489190610435565b60405180910390f35b5f600560169054906101000a900460f81b905090565b60605f80546101759061047b565b80601f01602080910402602001604051908101604052809291908181526020018280546101a19061047b565b80156101ec5780601f106101c3576101008083540402835291602001916101ec565b820191905f5260205f20905b8154815290600101906020018083116101cf57829003601f168201915b5050505050905090565b60055f9054906101000a900473ffffffffffffffffffffffffffffffffffffffff1681565b60025481565b60035f9054906101000a90045f0b81565b60045481565b60015f9054906101000a900460ff1681565b5f7fff0000000000000000000000000000000000000000000000000000000000000082169050919050565b61027e8161024a565b82525050565b5f6020820190506102975f830184610275565b92915050565b5f81519050919050565b5f82825260208201905092915050565b8281835e5f83830152505050565b5f601f19601f8301169050919050565b5f6102df8261029d565b6102e981856102a7565b93506102f98185602086016102b7565b610302816102c5565b840191505092915050565b5f6020820190508181035f83015261032581846102d5565b905092915050565b5f73ffffffffffffffffffffffffffffffffffffffff82169050919050565b5f6103568261032d565b9050919050565b6103668161034c565b82525050565b5f60208201905061037f5f83018461035d565b92915050565b5f819050919050565b61039781610385565b82525050565b5f6020820190506103b05f83018461038e565b92915050565b5f815f0b9050919050565b6103ca816103b6565b82525050565b5f6020820190506103e35f8301846103c1565b92915050565b5f819050919050565b6103fb816103e9565b82525050565b5f6020820190506104145f8301846103f2565b92915050565b5f60ff82169050919050565b61042f8161041a565b82525050565b5f6020820190506104485f830184610426565b92915050565b7f4e487b71000000000000000000000000000000000000000000000000000000005f52602260045260245ffd5b5f600282049050600182168061049257607f821691505b6020821081036104a5576104a461044e565b5b5091905056fea2646970667358221220bd5e38ebb604b01d5ad9319fab41356f172e94c123b6ac249ac6b323b60e9a1e64736f6c634300081a0033",
					"opcodes": "PUSH1 0x80 PUSH1 0x40 MSTORE PUSH1 0x1 DUP1 PUSH0 PUSH2 0x100 EXP DUP2 SLOAD DUP2 PUSH1 0xFF MUL NOT AND SWAP1 DUP4 PUSH1 0xFF AND MUL OR SWAP1 SSTORE POP PUSH1 0xEA PUSH1 0x2 SSTORE PUSH32 0xFFFFFFFFFFFFFFFFFFFFFFFFFFFFFFFFFFFFFFFFFFFFFFFFFFFFFFFFFFFFFFFF PUSH1 0x3 PUSH0 PUSH2 0x100 EXP DUP2 SLOAD DUP2 PUSH1 0xFF MUL NOT AND SWAP1 DUP4 PUSH0 SIGNEXTEND PUSH1 0xFF AND MUL OR SWAP1 SSTORE POP PUSH2 0x1C8 PUSH1 0x4 SSTORE PUSH20 0x1D870F1210E66CBA98093682B84D4491EC04141B PUSH1 0x5 PUSH0 PUSH2 0x100 EXP DUP2 SLOAD DUP2 PUSH20 0xFFFFFFFFFFFFFFFFFFFFFFFFFFFFFFFFFFFFFFFF MUL NOT AND SWAP1 DUP4 PUSH20 0xFFFFFFFFFFFFFFFFFFFFFFFFFFFFFFFFFFFFFFFF AND MUL OR SWAP1 SSTORE POP PUSH1 0xB5 PUSH1 0xF8 SHL PUSH1 0x5 PUSH1 0x14 PUSH2 0x100 EXP DUP2 SLOAD DUP2 PUSH1 0xFF MUL NOT AND SWAP1 DUP4 PUSH1 0xF8 SHR MUL OR SWAP1 SSTORE POP PUSH1 0x56 PUSH1 0xF8 SHL PUSH1 0x5 PUSH1 0x15 PUSH2 0x100 EXP DUP2 SLOAD DUP2 PUSH1 0xFF MUL NOT AND SWAP1 DUP4 PUSH1 0xF8 SHR MUL OR SWAP1 SSTORE POP CALLVALUE DUP1 ISZERO PUSH2 0x102 JUMPI PUSH0 DUP1 REVERT JUMPDEST POP PUSH1 0x40 MLOAD PUSH2 0xB70 CODESIZE SUB DUP1 PUSH2 0xB70 DUP4 CODECOPY DUP2 DUP2 ADD PUSH1 0x40 MSTORE DUP2 ADD SWAP1 PUSH2 0x124 SWAP2 SWAP1 PUSH2 0x2A5 JUMP JUMPDEST DUP1 PUSH1 0x40 MLOAD PUSH1 0x20 ADD PUSH2 0x135 SWAP2 SWAP1 PUSH2 0x37C JUMP JUMPDEST PUSH1 0x40 MLOAD PUSH1 0x20 DUP2 DUP4 SUB SUB DUP2 MSTORE SWAP1 PUSH1 0x40 MSTORE PUSH0 SWAP1 DUP2 PUSH2 0x151 SWAP2 SWAP1 PUSH2 0x5B3 JUMP JUMPDEST POP POP PUSH2 0x682 JUMP JUMPDEST PUSH0 PUSH1 0x40 MLOAD SWAP1 POP SWAP1 JUMP JUMPDEST PUSH0 DUP1 REVERT JUMPDEST PUSH0 DUP1 REVERT JUMPDEST PUSH0 DUP1 REVERT JUMPDEST PUSH0 DUP1 REVERT JUMPDEST PUSH0 PUSH1 0x1F NOT PUSH1 0x1F DUP4 ADD AND SWAP1 POP SWAP2 SWAP1 POP JUMP JUMPDEST PUSH32 0x4E487B7100000000000000000000000000000000000000000000000000000000 PUSH0 MSTORE PUSH1 0x41 PUSH1 0x4 MSTORE PUSH1 0x24 PUSH0 REVERT JUMPDEST PUSH2 0x1B7 DUP3 PUSH2 0x171 JUMP JUMPDEST DUP2 ADD DUP2 DUP2 LT PUSH8 0xFFFFFFFFFFFFFFFF DUP3 GT OR ISZERO PUSH2 0x1D6 JUMPI PUSH2 0x1D5 PUSH2 0x181 JUMP JUMPDEST JUMPDEST DUP1 PUSH1 0x40 MSTORE POP POP POP JUMP JUMPDEST PUSH0 PUSH2 0x1E8 PUSH2 0x158 JUMP JUMPDEST SWAP1 POP PUSH2 0x1F4 DUP3 DUP3 PUSH2 0x1AE JUMP JUMPDEST SWAP2 SWAP1 POP JUMP JUMPDEST PUSH0 PUSH8 0xFFFFFFFFFFFFFFFF DUP3 GT ISZERO PUSH2 0x213 JUMPI PUSH2 0x212 PUSH2 0x181 JUMP JUMPDEST JUMPDEST PUSH2 0x21C DUP3 PUSH2 0x171 JUMP JUMPDEST SWAP1 POP PUSH1 0x20 DUP2 ADD SWAP1 POP SWAP2 SWAP1 POP JUMP JUMPDEST DUP3 DUP2 DUP4 MCOPY PUSH0 DUP4 DUP4 ADD MSTORE POP POP POP JUMP JUMPDEST PUSH0 PUSH2 0x249 PUSH2 0x244 DUP5 PUSH2 0x1F9 JUMP JUMPDEST PUSH2 0x1DF JUMP JUMPDEST SWAP1 POP DUP3 DUP2 MSTORE PUSH1 0x20 DUP2 ADD DUP5 DUP5 DUP5 ADD GT ISZERO PUSH2 0x265 JUMPI PUSH2 0x264 PUSH2 0x16D JUMP JUMPDEST JUMPDEST PUSH2 0x270 DUP5 DUP3 DUP6 PUSH2 0x229 JUMP JUMPDEST POP SWAP4 SWAP3 POP POP POP JUMP JUMPDEST PUSH0 DUP3 PUSH1 0x1F DUP4 ADD SLT PUSH2 0x28C JUMPI PUSH2 0x28B PUSH2 0x169 JUMP JUMPDEST JUMPDEST DUP2 MLOAD PUSH2 0x29C DUP5 DUP3 PUSH1 0x20 DUP7 ADD PUSH2 0x237 JUMP JUMPDEST SWAP2 POP POP SWAP3 SWAP2 POP POP JUMP JUMPDEST PUSH0 PUSH1 0x20 DUP3 DUP5 SUB SLT ISZERO PUSH2 0x2BA JUMPI PUSH2 0x2B9 PUSH2 0x161 JUMP JUMPDEST JUMPDEST PUSH0 DUP3 ADD MLOAD PUSH8 0xFFFFFFFFFFFFFFFF DUP2 GT ISZERO PUSH2 0x2D7 JUMPI PUSH2 0x2D6 PUSH2 0x165 JUMP JUMPDEST JUMPDEST PUSH2 0x2E3 DUP5 DUP3 DUP6 ADD PUSH2 0x278 JUMP JUMPDEST SWAP2 POP POP SWAP3 SWAP2 POP POP JUMP JUMPDEST PUSH32 0x4D69206E6F6D6272652065733A00000000000000000000000000000000000000 DUP2 MSTORE POP JUMP JUMPDEST PUSH32 0x2000000000000000000000000000000000000000000000000000000000000000 DUP2 MSTORE POP JUMP JUMPDEST PUSH0 DUP2 MLOAD SWAP1 POP SWAP2 SWAP1 POP JUMP JUMPDEST PUSH0 DUP2 SWAP1 POP SWAP3 SWAP2 POP POP JUMP JUMPDEST PUSH0 PUSH2 0x356 DUP3 PUSH2 0x338 JUMP JUMPDEST PUSH2 0x360 DUP2 DUP6 PUSH2 0x342 JUMP JUMPDEST SWAP4 POP PUSH2 0x370 DUP2 DUP6 PUSH1 0x20 DUP7 ADD PUSH2 0x229 JUMP JUMPDEST DUP1 DUP5 ADD SWAP2 POP POP SWAP3 SWAP2 POP POP JUMP JUMPDEST PUSH0 PUSH2 0x386 DUP3 PUSH2 0x2EC JUMP JUMPDEST PUSH1 0xD DUP3 ADD SWAP2 POP PUSH2 0x395 DUP3 PUSH2 0x312 JUMP JUMPDEST PUSH1 0x1 DUP3 ADD SWAP2 POP PUSH2 0x3A5 DUP3 DUP5 PUSH2 0x34C JUMP JUMPDEST SWAP2 POP DUP2 SWAP1 POP SWAP3 SWAP2 POP POP JUMP JUMPDEST PUSH32 0x4E487B7100000000000000000000000000000000000000000000000000000000 PUSH0 MSTORE PUSH1 0x22 PUSH1 0x4 MSTORE PUSH1 0x24 PUSH0 REVERT JUMPDEST PUSH0 PUSH1 0x2 DUP3 DIV SWAP1 POP PUSH1 0x1 DUP3 AND DUP1 PUSH2 0x3F4 JUMPI PUSH1 0x7F DUP3 AND SWAP2 POP JUMPDEST PUSH1 0x20 DUP3 LT DUP2 SUB PUSH2 0x407 JUMPI PUSH2 0x406 PUSH2 0x3B0 JUMP JUMPDEST JUMPDEST POP SWAP2 SWAP1 POP JUMP JUMPDEST PUSH0 DUP2 SWAP1 POP DUP2 PUSH0 MSTORE PUSH1 0x20 PUSH0 KECCAK256 SWAP1 POP SWAP2 SWAP1 POP JUMP JUMPDEST PUSH0 PUSH1 0x20 PUSH1 0x1F DUP4 ADD DIV SWAP1 POP SWAP2 SWAP1 POP JUMP JUMPDEST PUSH0 DUP3 DUP3 SHL SWAP1 POP SWAP3 SWAP2 POP POP JUMP JUMPDEST PUSH0 PUSH1 0x8 DUP4 MUL PUSH2 0x469 PUSH32 0xFFFFFFFFFFFFFFFFFFFFFFFFFFFFFFFFFFFFFFFFFFFFFFFFFFFFFFFFFFFFFFFF DUP3 PUSH2 0x42E JUMP JUMPDEST PUSH2 0x473 DUP7 DUP4 PUSH2 0x42E JUMP JUMPDEST SWAP6 POP DUP1 NOT DUP5 AND SWAP4 POP DUP1 DUP7 AND DUP5 OR SWAP3 POP POP POP SWAP4 SWAP3 POP POP POP JUMP JUMPDEST PUSH0 DUP2 SWAP1 POP SWAP2 SWAP1 POP JUMP JUMPDEST PUSH0 DUP2 SWAP1 POP SWAP2 SWAP1 POP JUMP JUMPDEST PUSH0 PUSH2 0x4B7 PUSH2 0x4B2 PUSH2 0x4AD DUP5 PUSH2 0x48B JUMP JUMPDEST PUSH2 0x494 JUMP JUMPDEST PUSH2 0x48B JUMP JUMPDEST SWAP1 POP SWAP2 SWAP1 POP JUMP JUMPDEST PUSH0 DUP2 SWAP1 POP SWAP2 SWAP1 POP JUMP JUMPDEST PUSH2 0x4D0 DUP4 PUSH2 0x49D JUMP JUMPDEST PUSH2 0x4E4 PUSH2 0x4DC DUP3 PUSH2 0x4BE JUMP JUMPDEST DUP5 DUP5 SLOAD PUSH2 0x43A JUMP JUMPDEST DUP3 SSTORE POP POP POP POP JUMP JUMPDEST PUSH0 SWAP1 JUMP JUMPDEST PUSH2 0x4F8 PUSH2 0x4EC JUMP JUMPDEST PUSH2 0x503 DUP2 DUP5 DUP5 PUSH2 0x4C7 JUMP JUMPDEST POP POP POP JUMP JUMPDEST JUMPDEST DUP2 DUP2 LT ISZERO PUSH2 0x526 JUMPI PUSH2 0x51B PUSH0 DUP3 PUSH2 0x4F0 JUMP JUMPDEST PUSH1 0x1 DUP2 ADD SWAP1 POP PUSH2 0x509 JUMP JUMPDEST POP POP JUMP JUMPDEST PUSH1 0x1F DUP3 GT ISZERO PUSH2 0x56B JUMPI PUSH2 0x53C DUP2 PUSH2 0x40D JUMP JUMPDEST PUSH2 0x545 DUP5 PUSH2 0x41F JUMP JUMPDEST DUP2 ADD PUSH1 0x20 DUP6 LT ISZERO PUSH2 0x554 JUMPI DUP2 SWAP1 POP JUMPDEST PUSH2 0x568 PUSH2 0x560 DUP6 PUSH2 0x41F JUMP JUMPDEST DUP4 ADD DUP3 PUSH2 0x508 JUMP JUMPDEST POP POP JUMPDEST POP POP POP JUMP JUMPDEST PUSH0 DUP3 DUP3 SHR SWAP1 POP SWAP3 SWAP2 POP POP JUMP JUMPDEST PUSH0 PUSH2 0x58B PUSH0 NOT DUP5 PUSH1 0x8 MUL PUSH2 0x570 JUMP JUMPDEST NOT DUP1 DUP4 AND SWAP2 POP POP SWAP3 SWAP2 POP POP JUMP JUMPDEST PUSH0 PUSH2 0x5A3 DUP4 DUP4 PUSH2 0x57C JUMP JUMPDEST SWAP2 POP DUP3 PUSH1 0x2 MUL DUP3 OR SWAP1 POP SWAP3 SWAP2 POP POP JUMP JUMPDEST PUSH2 0x5BC DUP3 PUSH2 0x338 JUMP JUMPDEST PUSH8 0xFFFFFFFFFFFFFFFF DUP2 GT ISZERO PUSH2 0x5D5 JUMPI PUSH2 0x5D4 PUSH2 0x181 JUMP JUMPDEST JUMPDEST PUSH2 0x5DF DUP3 SLOAD PUSH2 0x3DD JUMP JUMPDEST PUSH2 0x5EA DUP3 DUP3 DUP6 PUSH2 0x52A JUMP JUMPDEST PUSH0 PUSH1 0x20 SWAP1 POP PUSH1 0x1F DUP4 GT PUSH1 0x1 DUP2 EQ PUSH2 0x61B JUMPI PUSH0 DUP5 ISZERO PUSH2 0x609 JUMPI DUP3 DUP8 ADD MLOAD SWAP1 POP JUMPDEST PUSH2 0x613 DUP6 DUP3 PUSH2 0x598 JUMP JUMPDEST DUP7 SSTORE POP PUSH2 0x67A JUMP JUMPDEST PUSH1 0x1F NOT DUP5 AND PUSH2 0x629 DUP7 PUSH2 0x40D JUMP JUMPDEST PUSH0 JUMPDEST DUP3 DUP2 LT ISZERO PUSH2 0x650 JUMPI DUP5 DUP10 ADD MLOAD DUP3 SSTORE PUSH1 0x1 DUP3 ADD SWAP2 POP PUSH1 0x20 DUP6 ADD SWAP5 POP PUSH1 0x20 DUP2 ADD SWAP1 POP PUSH2 0x62B JUMP JUMPDEST DUP7 DUP4 LT ISZERO PUSH2 0x66D JUMPI DUP5 DUP10 ADD MLOAD PUSH2 0x669 PUSH1 0x1F DUP10 AND DUP3 PUSH2 0x57C JUMP JUMPDEST DUP4 SSTORE POP JUMPDEST PUSH1 0x1 PUSH1 0x2 DUP9 MUL ADD DUP9 SSTORE POP POP POP JUMPDEST POP POP POP POP POP POP JUMP JUMPDEST PUSH2 0x4E1 DUP1 PUSH2 0x68F PUSH0 CODECOPY PUSH0 RETURN INVALID PUSH1 0x80 PUSH1 0x40 MSTORE CALLVALUE DUP1 ISZERO PUSH2 0xF JUMPI PUSH0 DUP1 REVERT JUMPDEST POP PUSH1 0x4 CALLDATASIZE LT PUSH2 0x7B JUMPI PUSH0 CALLDATALOAD PUSH1 0xE0 SHR DUP1 PUSH4 0xCE410D53 GT PUSH2 0x59 JUMPI DUP1 PUSH4 0xCE410D53 EQ PUSH2 0xD9 JUMPI DUP1 PUSH4 0xDF77A62E EQ PUSH2 0xF7 JUMPI DUP1 PUSH4 0xF7AE9171 EQ PUSH2 0x115 JUMPI DUP1 PUSH4 0xF950FC6D EQ PUSH2 0x133 JUMPI PUSH2 0x7B JUMP JUMPDEST DUP1 PUSH4 0xBCD3B33 EQ PUSH2 0x7F JUMPI DUP1 PUSH4 0x17D7DE7C EQ PUSH2 0x9D JUMPI DUP1 PUSH4 0x38304639 EQ PUSH2 0xBB JUMPI JUMPDEST PUSH0 DUP1 REVERT JUMPDEST PUSH2 0x87 PUSH2 0x151 JUMP JUMPDEST PUSH1 0x40 MLOAD PUSH2 0x94 SWAP2 SWAP1 PUSH2 0x284 JUMP JUMPDEST PUSH1 0x40 MLOAD DUP1 SWAP2 SUB SWAP1 RETURN JUMPDEST PUSH2 0xA5 PUSH2 0x167 JUMP JUMPDEST PUSH1 0x40 MLOAD PUSH2 0xB2 SWAP2 SWAP1 PUSH2 0x30D JUMP JUMPDEST PUSH1 0x40 MLOAD DUP1 SWAP2 SUB SWAP1 RETURN JUMPDEST PUSH2 0xC3 PUSH2 0x1F6 JUMP JUMPDEST PUSH1 0x40 MLOAD PUSH2 0xD0 SWAP2 SWAP1 PUSH2 0x36C JUMP JUMPDEST PUSH1 0x40 MLOAD DUP1 SWAP2 SUB SWAP1 RETURN JUMPDEST PUSH2 0xE1 PUSH2 0x21B JUMP JUMPDEST PUSH1 0x40 MLOAD PUSH2 0xEE SWAP2 SWAP1 PUSH2 0x39D JUMP JUMPDEST PUSH1 0x40 MLOAD DUP1 SWAP2 SUB SWAP1 RETURN JUMPDEST PUSH2 0xFF PUSH2 0x221 JUMP JUMPDEST PUSH1 0x40 MLOAD PUSH2 0x10C SWAP2 SWAP1 PUSH2 0x3D0 JUMP JUMPDEST PUSH1 0x40 MLOAD DUP1 SWAP2 SUB SWAP1 RETURN JUMPDEST PUSH2 0x11D PUSH2 0x232 JUMP JUMPDEST PUSH1 0x40 MLOAD PUSH2 0x12A SWAP2 SWAP1 PUSH2 0x401 JUMP JUMPDEST PUSH1 0x40 MLOAD DUP1 SWAP2 SUB SWAP1 RETURN JUMPDEST PUSH2 0x13B PUSH2 0x238 JUMP JUMPDEST PUSH1 0x40 MLOAD PUSH2 0x148 SWAP2 SWAP1 PUSH2 0x435 JUMP JUMPDEST PUSH1 0x40 MLOAD DUP1 SWAP2 SUB SWAP1 RETURN JUMPDEST PUSH0 PUSH1 0x5 PUSH1 0x16 SWAP1 SLOAD SWAP1 PUSH2 0x100 EXP SWAP1 DIV PUSH1 0xF8 SHL SWAP1 POP SWAP1 JUMP JUMPDEST PUSH1 0x60 PUSH0 DUP1 SLOAD PUSH2 0x175 SWAP1 PUSH2 0x47B JUMP JUMPDEST DUP1 PUSH1 0x1F ADD PUSH1 0x20 DUP1 SWAP2 DIV MUL PUSH1 0x20 ADD PUSH1 0x40 MLOAD SWAP1 DUP2 ADD PUSH1 0x40 MSTORE DUP1 SWAP3 SWAP2 SWAP1 DUP2 DUP2 MSTORE PUSH1 0x20 ADD DUP3 DUP1 SLOAD PUSH2 0x1A1 SWAP1 PUSH2 0x47B JUMP JUMPDEST DUP1 ISZERO PUSH2 0x1EC JUMPI DUP1 PUSH1 0x1F LT PUSH2 0x1C3 JUMPI PUSH2 0x100 DUP1 DUP4 SLOAD DIV MUL DUP4 MSTORE SWAP2 PUSH1 0x20 ADD SWAP2 PUSH2 0x1EC JUMP JUMPDEST DUP3 ADD SWAP2 SWAP1 PUSH0 MSTORE PUSH1 0x20 PUSH0 KECCAK256 SWAP1 JUMPDEST DUP2 SLOAD DUP2 MSTORE SWAP1 PUSH1 0x1 ADD SWAP1 PUSH1 0x20 ADD DUP1 DUP4 GT PUSH2 0x1CF JUMPI DUP3 SWAP1 SUB PUSH1 0x1F AND DUP3 ADD SWAP2 JUMPDEST POP POP POP POP POP SWAP1 POP SWAP1 JUMP JUMPDEST PUSH1 0x5 PUSH0 SWAP1 SLOAD SWAP1 PUSH2 0x100 EXP SWAP1 DIV PUSH20 0xFFFFFFFFFFFFFFFFFFFFFFFFFFFFFFFFFFFFFFFF AND DUP2 JUMP JUMPDEST PUSH1 0x2 SLOAD DUP2 JUMP JUMPDEST PUSH1 0x3 PUSH0 SWAP1 SLOAD SWAP1 PUSH2 0x100 EXP SWAP1 DIV PUSH0 SIGNEXTEND DUP2 JUMP JUMPDEST PUSH1 0x4 SLOAD DUP2 JUMP JUMPDEST PUSH1 0x1 PUSH0 SWAP1 SLOAD SWAP1 PUSH2 0x100 EXP SWAP1 DIV PUSH1 0xFF AND DUP2 JUMP JUMPDEST PUSH0 PUSH32 0xFF00000000000000000000000000000000000000000000000000000000000000 DUP3 AND SWAP1 POP SWAP2 SWAP1 POP JUMP JUMPDEST PUSH2 0x27E DUP2 PUSH2 0x24A JUMP JUMPDEST DUP3 MSTORE POP POP JUMP JUMPDEST PUSH0 PUSH1 0x20 DUP3 ADD SWAP1 POP PUSH2 0x297 PUSH0 DUP4 ADD DUP5 PUSH2 0x275 JUMP JUMPDEST SWAP3 SWAP2 POP POP JUMP JUMPDEST PUSH0 DUP2 MLOAD SWAP1 POP SWAP2 SWAP1 POP JUMP JUMPDEST PUSH0 DUP3 DUP3 MSTORE PUSH1 0x20 DUP3 ADD SWAP1 POP SWAP3 SWAP2 POP POP JUMP JUMPDEST DUP3 DUP2 DUP4 MCOPY PUSH0 DUP4 DUP4 ADD MSTORE POP POP POP JUMP JUMPDEST PUSH0 PUSH1 0x1F NOT PUSH1 0x1F DUP4 ADD AND SWAP1 POP SWAP2 SWAP1 POP JUMP JUMPDEST PUSH0 PUSH2 0x2DF DUP3 PUSH2 0x29D JUMP JUMPDEST PUSH2 0x2E9 DUP2 DUP6 PUSH2 0x2A7 JUMP JUMPDEST SWAP4 POP PUSH2 0x2F9 DUP2 DUP6 PUSH1 0x20 DUP7 ADD PUSH2 0x2B7 JUMP JUMPDEST PUSH2 0x302 DUP2 PUSH2 0x2C5 JUMP JUMPDEST DUP5 ADD SWAP2 POP POP SWAP3 SWAP2 POP POP JUMP JUMPDEST PUSH0 PUSH1 0x20 DUP3 ADD SWAP1 POP DUP2 DUP2 SUB PUSH0 DUP4 ADD MSTORE PUSH2 0x325 DUP2 DUP5 PUSH2 0x2D5 JUMP JUMPDEST SWAP1 POP SWAP3 SWAP2 POP POP JUMP JUMPDEST PUSH0 PUSH20 0xFFFFFFFFFFFFFFFFFFFFFFFFFFFFFFFFFFFFFFFF DUP3 AND SWAP1 POP SWAP2 SWAP1 POP JUMP JUMPDEST PUSH0 PUSH2 0x356 DUP3 PUSH2 0x32D JUMP JUMPDEST SWAP1 POP SWAP2 SWAP1 POP JUMP JUMPDEST PUSH2 0x366 DUP2 PUSH2 0x34C JUMP JUMPDEST DUP3 MSTORE POP POP JUMP JUMPDEST PUSH0 PUSH1 0x20 DUP3 ADD SWAP1 POP PUSH2 0x37F PUSH0 DUP4 ADD DUP5 PUSH2 0x35D JUMP JUMPDEST SWAP3 SWAP2 POP POP JUMP JUMPDEST PUSH0 DUP2 SWAP1 POP SWAP2 SWAP1 POP JUMP JUMPDEST PUSH2 0x397 DUP2 PUSH2 0x385 JUMP JUMPDEST DUP3 MSTORE POP POP JUMP JUMPDEST PUSH0 PUSH1 0x20 DUP3 ADD SWAP1 POP PUSH2 0x3B0 PUSH0 DUP4 ADD DUP5 PUSH2 0x38E JUMP JUMPDEST SWAP3 SWAP2 POP POP JUMP JUMPDEST PUSH0 DUP2 PUSH0 SIGNEXTEND SWAP1 POP SWAP2 SWAP1 POP JUMP JUMPDEST PUSH2 0x3CA DUP2 PUSH2 0x3B6 JUMP JUMPDEST DUP3 MSTORE POP POP JUMP JUMPDEST PUSH0 PUSH1 0x20 DUP3 ADD SWAP1 POP PUSH2 0x3E3 PUSH0 DUP4 ADD DUP5 PUSH2 0x3C1 JUMP JUMPDEST SWAP3 SWAP2 POP POP JUMP JUMPDEST PUSH0 DUP2 SWAP1 POP SWAP2 SWAP1 POP JUMP JUMPDEST PUSH2 0x3FB DUP2 PUSH2 0x3E9 JUMP JUMPDEST DUP3 MSTORE POP POP JUMP JUMPDEST PUSH0 PUSH1 0x20 DUP3 ADD SWAP1 POP PUSH2 0x414 PUSH0 DUP4 ADD DUP5 PUSH2 0x3F2 JUMP JUMPDEST SWAP3 SWAP2 POP POP JUMP JUMPDEST PUSH0 PUSH1 0xFF DUP3 AND SWAP1 POP SWAP2 SWAP1 POP JUMP JUMPDEST PUSH2 0x42F DUP2 PUSH2 0x41A JUMP JUMPDEST DUP3 MSTORE POP POP JUMP JUMPDEST PUSH0 PUSH1 0x20 DUP3 ADD SWAP1 POP PUSH2 0x448 PUSH0 DUP4 ADD DUP5 PUSH2 0x426 JUMP JUMPDEST SWAP3 SWAP2 POP POP JUMP JUMPDEST PUSH32 0x4E487B7100000000000000000000000000000000000000000000000000000000 PUSH0 MSTORE PUSH1 0x22 PUSH1 0x4 MSTORE PUSH1 0x24 PUSH0 REVERT JUMPDEST PUSH0 PUSH1 0x2 DUP3 DIV SWAP1 POP PUSH1 0x1 DUP3 AND DUP1 PUSH2 0x492 JUMPI PUSH1 0x7F DUP3 AND SWAP2 POP JUMPDEST PUSH1 0x20 DUP3 LT DUP2 SUB PUSH2 0x4A5 JUMPI PUSH2 0x4A4 PUSH2 0x44E JUMP JUMPDEST JUMPDEST POP SWAP2 SWAP1 POP JUMP INVALID LOG2 PUSH5 0x6970667358 0x22 SLT KECCAK256 0xBD MCOPY CODESIZE 0xEB 0xB6 DIV 0xB0 SAR GAS 0xD9 BALANCE SWAP16 0xAB COINBASE CALLDATALOAD PUSH16 0x172E94C123B6AC249AC6B323B60E9A1E PUSH5 0x736F6C6343 STOP ADDMOD BYTE STOP CALLER "
				},
				"gasEstimates": {
					"creation": {
						"codeDepositCost": "249800",
						"executionCost": "infinite",
						"totalCost": "infinite"
					},
					"external": {
						"address_var()": "2553",
						"getBytes()": "2525",
						"getName()": "infinite",
						"int_256()": "2469",
						"int_8()": "2490",
						"uint_256()": "2425",
						"uint_8()": "2532"
					}
				},
				"methodIdentifiers": {
					"address_var()": "38304639",
					"getBytes()": "0bcd3b33",
					"getName()": "17d7de7c",
					"int_256()": "f7ae9171",
					"int_8()": "df77a62e",
					"uint_256()": "ce410d53",
					"uint_8()": "f950fc6d"
				}
			},
			"storageLayout": {
				"storage": [
					{
						"astId": 3,
						"contract": "variables_nativas.sol:Variables_Nativas",
						"label": "fullName",
						"offset": 0,
						"slot": "0",
						"type": "t_string_storage"
					},
					{
						"astId": 30,
						"contract": "variables_nativas.sol:Variables_Nativas",
						"label": "uint_8",
						"offset": 0,
						"slot": "1",
						"type": "t_uint8"
					},
					{
						"astId": 33,
						"contract": "variables_nativas.sol:Variables_Nativas",
						"label": "uint_256",
						"offset": 0,
						"slot": "2",
						"type": "t_uint256"
					},
					{
						"astId": 37,
						"contract": "variables_nativas.sol:Variables_Nativas",
						"label": "int_8",
						"offset": 0,
						"slot": "3",
						"type": "t_int8"
					},
					{
						"astId": 40,
						"contract": "variables_nativas.sol:Variables_Nativas",
						"label": "int_256",
						"offset": 0,
						"slot": "4",
						"type": "t_int256"
					},
					{
						"astId": 43,
						"contract": "variables_nativas.sol:Variables_Nativas",
						"label": "address_var",
						"offset": 0,
						"slot": "5",
						"type": "t_address"
					},
					{
						"astId": 46,
						"contract": "variables_nativas.sol:Variables_Nativas",
						"label": "a_var",
						"offset": 20,
						"slot": "5",
						"type": "t_bytes1"
					},
					{
						"astId": 49,
						"contract": "variables_nativas.sol:Variables_Nativas",
						"label": "b_var",
						"offset": 21,
						"slot": "5",
						"type": "t_bytes1"
					},
					{
						"astId": 51,
						"contract": "variables_nativas.sol:Variables_Nativas",
						"label": "c_var",
						"offset": 22,
						"slot": "5",
						"type": "t_bytes1"
					}
				],
				"types": {
					"t_address": {
						"encoding": "inplace",
						"label": "address",
						"numberOfBytes": "20"
					},
					"t_bytes1": {
						"encoding": "inplace",
						"label": "bytes1",
						"numberOfBytes": "1"
					},
					"t_int256": {
						"encoding": "inplace",
						"label": "int256",
						"numberOfBytes": "32"
					},
					"t_int8": {
						"encoding": "inplace",
						"label": "int8",
						"numberOfBytes": "1"
					},
					"t_string_storage": {
						"encoding": "bytes",
						"label": "string",
						"numberOfBytes": "32"
					},
					"t_uint256": {
						"encoding": "inplace",
						"label": "uint256",
						"numberOfBytes": "32"
					},
					"t_uint8": {
						"encoding": "inplace",
						"label": "uint8",
						"numberOfBytes": "1"
					}
				}
			},
			"userdoc": {
				"kind": "user",
				"methods": {},
				"version": 1
			}
		}
	}
}